:020000040000FA
:1000000049EF14F01200FFFF04EF04F01200FFFFAD
:10001000FFFFFFFFFFFFFFFF0CEF04F01200FFFFE9
:10002000FFFFFFFFFFFFFFFFFFFFFFFFFFFFFFFFE0
:10003000FFFFFFFFFFFFFFFFFFFFFFFFFFFFFFFFD0
:10004000FFFFFFFFFFFFFFFFFFFFFFFFFFFFFFFFC0
:10005000FFFFFFFFFFFFFFFFFFFFFFFFFFFFFFFFB0
:1008000049EF14F01200FFFF57EF11F01200FFFF45
:10081000FFFFFFFFFFFFFFFF44EF11F01200FFFF9C
:10082000FFFFFFFFFFFFFFFFFFFF0100BE280000EB
:10083000F804000002000000D9CFE6FFE1CFD9FFA5
:10084000E652636A626A0F01160E396F9F0E376FA8
:100850007B0E366F658C386B020EE66EE66AE66AD2
:10086000270EE66E0F0EE66E2FEC14F00B6E050EE3
:10087000E15E0B50659CDF6ADF500B6E0C6A100E58
:100880000B5C000E0C5810E2DF50040DF3CFE9FFB3
:10089000F4CFEAFF000EE926040EEA22EE6AEE6AC1
:1008A000EE6AEE6ADF2AE8D70F01160E266F62A6FF
:1008B00002D06296FCD70E011B6B206B216B226B62
:1008C0006598080E0F6F040E106F016B006BE552F8
:1008D000E552E7CFD9FF1200D9CFE6FFE1CFD9FF2C
:1008E000E6520E01005118E107D0656A0F01366B20
:1008F0000E01006BA198B1D0656A0F01366B160E20
:10090000396F9F0E376F7B0E366F65B602D06586E6
:10091000FCD70E01010E006F00050AE165BA08D090
:10092000626A0F01366B368136890E01020E006F46
:100930006250040B06E00F013651040B02E0629492
:10094000BED865A202D0A19888D06250010B13E0F6
:100950000F013651010B0FE06FDF0E01040E006F27
:100960000401400E026F040E036F080E016F006B4E
:100970008C0E001362906250100B06E00F0136518E
:10098000100B02E089D862986250400B14E00F010E
:100990003651400B10E0010EE66EE66A000EE66E80
:1009A000E66A730EE66EE66AF9EC10F00B6E060E60
:1009B000E15E0B50629C6250200B05E00F01365146
:1009C000200B01E04FD86250020B13E00F013651AB
:1009D000020B0FE0010EE66EE66A000EE66EE66AB6
:1009E000E668E668F9EC10F00B6E060EE15E0B505F
:1009F000636A040E0E01E76E0019E8AE02D0E73418
:100A000002D0E750005D02E2A19827D00F0136A77F
:100A100023D0DF6A040EDF5C1FE262A61AD064CF27
:100A200028FE6296780E0E01281502E15ED810D0DD
:100A3000000EE66EE66A280EE66E0E0EE66E720E8A
:100A4000E66EE66AF9EC10F00B6E060EE15E0B50F6
:100A500001D002D0DF2ADED7A198E552E552E7CFD8
:100A6000D9FF12000F0126A115D003CEE9FF04CE55
:100A7000EAFFEF5080080DE10FCEE9FF10CEEAFF4C
:100A8000EF50840806E103CEE9FF04CEEAFF8C0EA6
:100A9000EF6E2691629A12000F0136856298658288
:100AA000000EE66EE66AE66EE66A750EE66EE66AC9
:100AB000F9EC10F00B6E060EE15E0B501200000E0A
:100AC000E66EE66AE66EE66A740EE66EE66AF9ECD3
:100AD00010F00B6E060EE15E0B5065920F0136951D
:100AE00062A402D06294FCD71200D9CFE6FFE1CF16
:100AF000D9FFE652FD0E0E0128155AE17E0E28158B
:100B0000E8407F0B040DF3CF03FEF4CF04FE000E8C
:100B10000327040E042303CE05FE04CE06FE05754E
:100B200003CEE9FF04CEEAFFEF503C0BE842E84277
:100B30000D083CE103CEE9FF04CEEAFF020EE926F0
:100B4000000EEA22EECF0BF0EFCF0CF0480E0B18A0
:100B500002E1040E0C1828E103CEE9FF04CEEAFFFF
:100B6000020EE926000EEA22400EEE6E040EED6E35
:100B7000DF6ADF500B6E0C6A080E0B5C000E0C581F
:100B800013E2DF50EA6A480FE96E040EEA22EF50E2
:100B9000E66EDF50EA6A400FE96E040EEA22E55283
:100BA000E750EF6EDF2AE5D70DD801D02ED805D05B
:100BB000FD0E2815040801E14ED8E552E552E7CFB5
:100BC000D9FF12000FCEE9FF10CEEAFFEF50800BE5
:100BD00005E00FCEE9FF10CEEAFFEF6A0E01176BBA
:100BE000186B1C6B1D6B1B6BB9D8000EE66EE66AAA
:100BF000E66EE66A030EE66EE66AF9EC10F00B6E3E
:100C0000060EE15E0B505AEF08F0020E0E01185D61
:100C100002E1B0DB1FD06FD80E0129511AE105CED9
:100C2000E9FF06CEEAFFEE52080EEF6E05CEE9FFB1
:100C300006CEEAFF020EE926000EEA22400EEE6E14
:100C4000040EED6E05CEE9FF06CEEAFF8C0EEF6EC8
:100C500001D0296B1200D9CFE6FFE1CFD9FFE652D0
:100C60000FCEE9FF10CEEAFFEF50400B01E0010E7E
:100C7000DF6E0E010F75080E005D0DE142C438FFF6
:100C80000F013851000804E20E01100E006F03D06E
:100C90000E01040E006F180528E10FCEE9FF10CEFB
:100CA000EAFF020EE926000EEA22480EEE6E040E5E
:100CB000ED6ED5DA020E0E01175D07E10FCEE9FFEA
:100CC00010CEEAFF840EEF6E0FD0DF5007E10FCE9B
:100CD000E9FF10CEEAFFC80EEF6E06D00FCEE9FF97
:100CE00010CEEAFF880EEF6E01D005D8E552E5522E
:100CF000E7CFD9FF1200D9CFE6FFE1CFD9FF020E2F
:100D0000E1260E01186B0FCEE9FF10CEEAFFEF6A65
:100D1000040E0F190B6E10CE0CF00BC0DEFF0CC0D2
:100D2000DDFFDECFE9FFDDCFEAFFEF6A20AF0CD0B9
:100D30002351241107E005D024CEFAFF0E012351E0
:100D4000F96EFADF0E01209F020EE15C02E2E16A19
:100D5000E552E16EE552E7CFD9FF120004014051A0
:100D6000600BE842E842E842E842E842000901E05C
:100D700058D041510C0A54E00B0A43E00C0A35E00C
:100D8000010A26E00B0A22E0020A20E0030A1CE026
:100D9000080A10E0010A0CE00F0A08E0030A01E06B
:100DA0003FD00E011B8F080E006F3BD0C8D839D042
:100DB0007FDB37D00E01010E196F0E0E1A6F1B81EB
:100DC000010E1C6F1B8F2DD014D92BD02BD829D0FE
:100DD00044510E01196F1A6B020E19270E0E1A23B9
:100DE0001B81010E1C6F1B8F1CD00E011B8F040179
:100DF0004451EA6A020FE96E0E0EEA2242C4EFFF86
:100E000010D0000EE66EE66AE66EE66A020EE66E48
:100E1000E66AF9EC10F00B6E060EE15E0B5001D0A5
:100E200000D01200D9CFE6FFE1CFD9FF040EE126B2
:100E30000401420510E140511F0B00090CE10E01B5
:100E40001B8F030E0401415D04E10E01010E276FAB
:100E500002D00E01276B0401425167E140511F0B84
:100E6000020863E144510F0B00095FE00E011B8F84
:100E7000040144BF10D044510F0BE96EEA6AD890C8
:100E8000E936EA36070EE9260E0EEA22EECFDEFF3D
:100E9000EDCFDDFF0FD044510F0BE96EEA6AD89019
:100EA000E936EA360F0EE9260E0EEA22EECFDEFF15
:100EB000EDCFDDFF030E415D07E1DECFE9FFDDCFC2
:100EC000EAFF840EEF6E31D044510F0B0C6A260FEF
:100ED0000B6E0F0E0C22020E0BC0DBFF030E0CC0BC
:100EE000DBFF020EDBCFE9FF030EDBCFEAFFEE9064
:100EF000ED5244AF0DD0DECFE9FFDDCFEAFFEF6A60
:100F0000DF74DECFE9FFDDCFEAFF400EEF6E0DD0DC
:100F1000DECFE9FFDDCFEAFF880EEF6EDF74DECFB4
:100F2000E9FFDDCFEAFFC80EEF6E040EE15C02E2DE
:100F3000E16AE552E16EE552E7CFD9FF1200800E7B
:100F40000401405D55E10E01C00E1B6F04014351C9
:100F5000030A2EE0010A0EE0030A03E00E011B6BF8
:100F600047D00E01FE0E196F260E1A6F120E1C6F5F
:100F70001D6B3ED04251F66EF76AD890F636F736C2
:100F8000B70EF626270EF7220900F5CF19FE0A0044
:100F9000F5CF1AFE020E0E01F76A1925F66E1A51E8
:100FA000F7220900F5CF1CFE0A00F5CF1DFE20D068
:100FB000030E425D1AE24251F66EF76AD890F63699
:100FC000F736B90EF626270EF7220900F5CF19FEDF
:100FD0000A00F5CF1AFE19CEF6FF1ACEF7FF080069
:100FE000F5500E011C6F1D6B02D00E011B6B00D063
:100FF0001200D9CFE6FFE1CFD9FF020EE1260401AE
:10100000486B496B40511F0B020A12E0030A0DE0C6
:10101000010A01E03BD00E011B8F040148810E0143
:10102000270502E10401488331D00E011B8F2ED029
:101030000E011B8F040144BF10D044510F0BE96E09
:10104000EA6AD890E936EA36070EE9260E0EEA2259
:10105000EECFDEFFEDCFDDFF0FD044510F0BE96E79
:10106000EA6AD890E936EA360F0EE9260E0EEA2231
:10107000EECFDEFFEDCFDDFFDECFE9FFDDCFEAFF14
:10108000EF50040B02E0010E486F00D00E011BAFC1
:1010900007D0480E196F040E1A6F1B81020E1C6FC9
:1010A000020EE15C02E2E16AE552E16EE552E7CF51
:1010B000D9FF120065980E011BBF4AD020AF28D07F
:1010C000020E186F0FCEE9FF10CEEAFFEE52EF6A64
:1010D0000FCEE9FF10CEEAFFC80EEF6E05CEE9FF96
:1010E00006CEEAFFEE52080EEF6E05CEE9FF06CE01
:1010F000EAFF020EE926000EEA22480EEE6E040E0A
:10110000ED6E05CEE9FF06CEEAFFC80EEF6E1FD0EA
:1011100005CEE9FF06CEEAFFEE52080EEF6E05CED1
:10112000E9FF06CEEAFF020EE926000EEA22400E93
:10113000EE6E040EED6E05CEE9FF06CEEAFF8C0ED4
:10114000EF6E0FCEE9FF10CEEAFF840EEF6E86D071
:1011500020BF84D0040140AF59D00E011C510401BE
:10116000465D0E011D510401475904E246C41CFEB0
:1011700047C41DFE74D80E01010E186F05CEE9FF9D
:1011800006CEEAFFEE52080EEF6E05CEE9FF06CE60
:10119000EAFF020EE926000EEA22400EEE6E040E71
:1011A000ED6E05CEE9FF06CEEAFF800EEF6E296BED
:1011B00003CEE9FF04CEEAFFEE52080EEF6E03CE37
:1011C000E9FF04CEEAFF020EE926000EEA22400EF5
:1011D000EE6E040EED6E03CEE9FF04CEEAFF840E40
:1011E000EF6E010E296F0FCEE9FF10CEEAFF020E5F
:1011F000E926000EEA22480EEE6E040EED6E0FCECA
:10120000E9FF10CEEAFFC80EEF6E28D00E01020EE5
:10121000186F0FCEE9FF10CEEAFFEE52EF6A0FCE45
:10122000E9FF10CEEAFFC80EEF6E05CEE9FF06CE4D
:10123000EAFFEE52080EEF6E05CEE9FF06CEEAFF9A
:10124000020EE926000EEA22480EEE6E040EED6E46
:1012500005CEE9FF06CEEAFFC80EEF6E1200D9CF29
:10126000E6FFE1CFD9FF020EE1260E01080E1C5D5C
:10127000000E1D590EE21CCEDEFF1DCEDDFF175104
:1012800003E1010E176F04D0170502E1020E176F7C
:1012900003D0080EDE6EDD6A0FCEE9FF10CEEAFF46
:1012A000EF920FCEE9FF10CEEAFFEF900FCEE9FFED
:1012B00010CEEAFF010EDB50EF120FCEE9FF10CE89
:1012C000EAFFEE52DFCFEFFF000EDB501C5F010E96
:1012D000DB501D5B480E256F040E266F1BB121D01D
:1012E000D9CFE9FFDACFEAFFEE50ED1019E019CEC1
:1012F000F6FF1ACEF7FF192B000E1A230800F5503F
:10130000E66E25CEE9FF26CEEAFF252B000E26232A
:10131000E552E750EF6EDF06010E01E2DB06E0D793
:101320001FD0D9CFE9FFDACFEAFFEE50ED1018E079
:1013300019CEE9FF1ACEEAFF192B000E1A23EF503F
:10134000E66E25CEE9FF26CEEAFF252B000E2623EA
:10135000E552E750EF6EDF06010E01E2DB06E1D752
:10136000020EE15C02E2E16AE552E16EE552E7CF8E
:10137000D9FF1200D9CFE6FFE1CFD9FF020EE12657
:1013800003CEE9FF04CEEAFFEE52EFCFDFFFDFCF5F
:101390000BF00B500E01215D000E225903E221CE0D
:1013A000DFFF09D0DF500B6E0C6A0B50215D216FFF
:1013B0000C502259226F010EDB6ADF50F36E010ED2
:1013C000DBCFF4FFF350F45C16E2010EDB50EA6A67
:1013D000480FE96E040EEA22EF50E66E1ECEE9FFDA
:1013E0001FCEEAFF1E2B000E1F23E552E750EF6EC3
:1013F000010EDB2AE2D7000ED8802155000E2255BF
:1014000028E205CEE9FF06CEEAFFEE52080EEF6EA7
:1014100005CEE9FF06CEEAFF020EE926000EEA221B
:10142000480EEE6E040EED6E03CEE9FF04CEEAFF29
:10143000EF50400B07E105CEE9FF06CEEAFFC80EEC
:10144000EF6E06D005CEE9FF06CEEAFF880EEF6EFE
:1014500025D005CEE9FF06CEEAFFEE52080EEF6E6C
:1014600005CEE9FF06CEEAFF020EE926000EEA22CB
:10147000400EEE6E040EED6E05CEE9FF06CEEAFFDD
:10148000840EEF6E2351241107E005D024CEFAFF1D
:101490000E012351F96EFADF0E01209F020EE15C6E
:1014A00002E2E16AE552E16EE552E7CFD9FF1200B0
:1014B0000E011B8F020EE66EE66AE66A270EE66EE6
:1014C0000F0EE66E2FEC14F00B6E050EE15E0B5066
:1014D000010EE66EE66AE66A020EE66E0E0EE66E35
:1014E0002FEC14F00B6E050EE15E0B5042C401FEB2
:1014F0000E01015103E1100E006F12D0200E006F9B
:10150000010EE66EE66A010EE66E0E0EE66E010E46
:10151000E66EE66AF9EC10F00B6E060EE15E0B501B
:101520001200D9CFE6FFE1CFD9FF020EE126000E6F
:10153000DE6E040EDD6EFD0EDB50E8240D6EFE0E39
:10154000DB50040DF3500D24040DF3500B6E0C6AA8
:10155000020E0F0B05E0D8900C320B32E806FBE1CF
:10156000D8900B360C36D8900B360C36D9CFE9FF15
:10157000DACFEAFF0B50EE260C50ED22DECFE9FF6A
:10158000DDCFEAFFEF9EFD0EDB500FE1FE0EEA6AB3
:10159000DB34FE0BEA36E96E070EE9260E0EEA2270
:1015A000DECFEEFFDDCFEDFF0ED0FE0EEA6ADB34BC
:1015B000FE0BEA36E96E0F0EE9260E0EEA22DECFAA
:1015C000EEFFDDCFEDFFDECFE9FFDDCFEAFFEF9CE1
:1015D000DECFE9FFDDCFEAFF040EE926000EEA22A6
:1015E000EF8C020EE15C02E2E16AE552E16EE55247
:1015F000E7CFD9FF1200D9CFE6FFE1CFD9FF020E26
:10160000E126FE0EDB500C6A260F0B6E0F0E0C222D
:101610000BC0DEFF0CC0DDFFDECFE9FFDDCFEAFF50
:10162000FD0EDBCFEFFFDBA407D0E66AFE0EDBCFBB
:10163000E6FF77DFE552E552FD0EDBA208D0010E92
:10164000E66EFE0EDBCFE6FF6CDFE552E552020EE2
:10165000E15C02E2E16AE552E16EE552E7CFD9FFD3
:101660001200D9CFE6FFE1CFD9FF020EE126FE0E30
:10167000DB5020E105CEE9FF06CEEAFFEE52080E70
:10168000EF6E05CEE9FF06CEEAFF020EE926000E58
:10169000EA22400EEE6E040EED6E05CEE9FF06CE98
:1016A000EAFF8C0EEF6E0FCEE9FF10CEEAFF840E3C
:1016B000EF6E3DD0FD0EDB50E8240D6EFE0EDB50CC
:1016C000040DF3500D24040DF3CF0BF0F4CF0CF008
:1016D000000E0B26040E0C220BC0DEFF0CC0DDFF3B
:1016E000840E0B6EDECFE9FFDDCFEAFF0B50EF1269
:1016F000FD0EDB50E8240D6EFE0EDB50040DF350A2
:101700000D24010F040DF3CF0BF0F4CF0CF0000EFD
:101710000B26040E0C220BC0DEFF0CC0DDFF840E76
:101720000B6EDECFE9FFDDCFEAFF0B50EF12020EAA
:10173000E15C02E2E16AE552E16EE552E7CFD9FFF2
:101740001200D9CFE6FFE1CFD9FF020EE126FD0E50
:10175000DB500FE0FE0EEA6ADB34FE0BEA36E96E80
:101760000F0EE9260E0EEA22EECFDEFFEDCFDDFFF3
:101770000ED0FE0EEA6ADB34FE0BEA36E96E070E87
:10178000E9260E0EEA22EECFDEFFEDCFDDFFDECF43
:10179000E9FFDDCFEAFF020EE926000EEA22FB0E8A
:1017A000DBCFEEFFFC0EDBCFEDFFDECFE9FFDDCFC1
:1017B000EAFFEE52FA0EDBCFEFFF400E0B6EDECFEC
:1017C000E9FFDDCFEAFF0B50EF16880E0B6EDECF80
:1017D000E9FFDDCFEAFF0B50EF12FD0EDB500CE00E
:1017E000FE0EEA6ADB34FE0BEA36E96E0F0EE926DE
:1017F0000E0EEA22EF740BD0FE0EEA6ADB34FE0B0B
:10180000EA36E96E070EE9260E0EEA22EF74DECF05
:101810000BF0DDCF0CF00BC0F3FF0CC0F4FF020E99
:10182000E15C03E200D0E16AE552E16EE552E7CF08
:10183000D9FF1200D9CFE6FFE1CFD9FF65A84ED07E
:10184000FE0EEA6ADB34FE0BEA36E96E0F0EE9267D
:101850000E0EEA22EE50EFCFEAFFE96E400EEE16D2
:10186000EE6AEE6AEE6AFE0EEA6ADB34FE0BEA36D8
:10187000E96E0F0EE9260E0EEA22EE50EFCFEAFFD8
:10188000E96EEE7CFE0EEA6ADB34FE0BEA36E96EA8
:101890000F0EE9260E0EEA22EF74400E0B6EFE0EBE
:1018A000EA6ADB34FE0BEA36E96E0F0EE9260E0E0D
:1018B000EA22EE50EFCFEAFFE96E0B50EF16FE0E74
:1018C000EA6ADB34FE0BEA36E96E0F0EE9260E0EED
:1018D000EA22EE50EFCFEAFFE96EEF7CE552E7CF68
:1018E000D9FF1200D9CFE6FFE1CFD9FF050EE126DF
:1018F000030EDB6AD6DAECEC10F082A203D0FEDA3B
:101900000401F96F0401F95103E18250020B0FE168
:10191000010EF36E030EF3CFDBFF80969296828466
:1019200097EC10F00001E26B0001E66B03D08294AB
:1019300082EC10F01CEC04F0010EF36E040EF3CFF9
:10194000DBFF948E949C8B9CDF6A140EDF5C12E2AA
:101950008B7C00008B50400B01E0010E0B6E82501F
:10196000800B01E0010E0B5C03E0040EDB6A02D089
:10197000DF2AEBD78B9C040EDB0407E18284809284
:10198000030EE66E98DBE55280826CEC04F0200ECC
:101990000E01E76E0019E8AE02D0E73402D0E7503E
:1019A000005D03E36550020B01E0EFD7E0DB030EBF
:1019B000DB5053E181A224D0400E0401F85D1FE208
:1019C000809282848150020B18E0400E0401F85D81
:1019D00014E27F0EE66E6FDBE552E66E0401F8510D
:1019E000EA6AA20FE96E000EEA22E552E750EF6EB6
:1019F0000401F82B00000000E5D78294808214D007
:101A0000D950020FE66E000EDA20E66EC2DBE55218
:101A1000E552010809E180928284020EDB50756E66
:101A200073A0FED7829480820401E05113E1040187
:101A3000F85100080FE28284F8C4E6FFA20EE66EB9
:101A4000000EE66E3DEC12F0E552E552E55204015F
:101A5000F86B8294D9EC12F098D70001E251060A93
:101A600001E1FFD10F0A01E1E9D1030A01E1DFD170
:101A70000E0A01E1C8D1030A01E1A9D1040A01E17A
:101A800064D1010A01E10FD1070A01E1FCD0040A87
:101A900001E1CED0090A01E1A0D0080A01E0F4D1A9
:101AA000D950020FE66E000EDA20E66E72DBE552C8
:101AB000E552000901E169D70001E651EA6AE70F42
:101AC000E96E000EEA22020EDBCFEFFF0001E62BEB
:101AD0000001E651030801E37FD00001E66B00013D
:101AE000E751FF0A73E0DB0A6EE0230A68E0010AAF
:101AF00062E0030A5CE0010A44E0070A28E0010A08
:101B00000DE0030A07E0010A01E063D00001080EBE
:101B1000E26F62D00001010EE26F5ED00001020EA2
:101B2000E26F0001090EE36F010EE46F0001E56B47
:101B30008094840EE66EBFDAE552E66ABCDAE552BE
:101B4000E66AB9DAE552E66AB6DAE55245D000014E
:101B5000030EE26F0001080EE36F010EE46F809444
:101B6000030EE66EA8DAE552E8C0E6FFA4DAE55215
:101B7000E9C0E6FFA0DAE552EAC0E6FF9CDAE552EA
:101B80002BD00001050EE26F8094C70EE66E93DA4B
:101B9000E552940EE66E8FDAE552800EE66E8BDA31
:101BA000E5529A0EE66E87DAE552808415D0000180
:101BB000070EE26F11D00001090EE26F0DD0000197
:101BC0000A0EE26F09D00BEF00F006D0C4DAFF0076
:101BD00003D00001060EE26F57D10401E05127E166
:101BE0000001480EA26F0001010EA36F0001460E16
:101BF000A46F0001020EA56F0001010EA66F000187
:101C0000420EA76FF86A070EF76EFE0EF66E090019
:101C1000F5CFA8F0070EE66EA20EE66E000EE66E99
:101C20003DEC12F0E552E552E5520001E26B2CD199
:101C30000401E05127E180949F0EE66E3CDAE55204
:101C4000E66839DAE5520001A26FE66834DAE55257
:101C50000001A36FE6682FDAE5520001A46FE66881
:101C60002ADAE5520001A56F8084040EE66EA20E0A
:101C7000E66E000EE66E3DEC12F0E552E552E552DE
:101C80000001E26B01D18094D70EE66E14DAE552C2
:101C9000E66811DAE552DF6EDFAE03D00001040E14
:101CA000E26F8084F1D0D950020FE66E000EDA2088
:101CB000E66E6FDAE552E552000901E166D60001F1
:101CC000010ED880E355000EE4550EE2020EDBCF84
:101CD000E6FFF1D9E552020EDB500001E5270001D5
:101CE000E307000EE45B30D080840001E51F0001B3
:101CF000E52B020EDB500001E55D23E18094830EAD
:101D0000E66ED9D9E552E8C0E6FFD5D9E552E9C07B
:101D1000E6FFD1D9E552EAC0E6FFCDD9E55280848D
:101D20008094D70EE66EC7D9E552E668C4D9E5526D
:101D3000DF6EDFBE01D0F9D780840001040EE26FB0
:101D400003D00001060EE26F9FD00401E0513EE196
:101D50000001400EE35D000EE45904E2010EE3C011
:101D6000DBFF03D0DE52400EDD6E010EDB500B6E4A
:101D70000C6A0B500001E35F0C500001E45BDF6A6A
:101D8000010EDB50DF5C0FE2E66895D9E552E66EA6
:101D9000DF50EA6AA20FE96E000EEA22E552E75030
:101DA000EF6EDF2AEDD7010EDBCFE6FFA20EE66E67
:101DB000000EE66E3DEC12F0E552E552E5520001F0
:101DC000E351E41103E180840001E26B5DD0040182
:101DD000E05118E18094D70EE66E6DD9E552E668C1
:101DE0006AD9E5520001A26F8084010EE66EA20E50
:101DF000E66E000EE66E3DEC12F0E552E552E5525D
:101E00000001E26B41D00401E05110E10001010E3C
:101E1000A26F010EE66EA20EE66E000EE66E3DECBF
:101E200012F0E552E552E5520001E26B2DD066D882
:101E30000401F96F7CD90001090EE26F0401E05141
:101E40000FE1F9C4A2F0010EE66EA20EE66E000EDE
:101E5000E66E3DEC12F0E552E552E5520001E26B10
:101E600013D00401E0510FE10001A26B010EE66EF8
:101E7000A20EE66E000EE66E3DEC12F0E552E55263
:101E8000E5520001E26B00D0D9EC12F07ED5050ED0
:101E9000E15C02E2E16AE552E16EE552E7CFD9FF8B
:101EA0001200D9CFE6FFE1CFD9FF020EE126DE6AAC
:101EB000080EDD6E0F0148691F0E496F9268936826
:101EC000FB0E946E829480969296808492949B8C62
:101ED000DFCF0BF0DF06010EDBCF0CF001E2DB06FB
:101EE0000B500C1001E0F4D7020EE15C02E2E16A53
:101EF000E552E16EE552E7CFD9FF1200D9CFE6FFF8
:101F0000E1CFD9FF060EE126040EDB6A8096929699
:101F10000ED980949F0EE66ECED8E552E668CBD8F7
:101F2000E5520001A26FE668C6D8E5520001A36F32
:101F3000E668C1D8E5520001A46FE668BCD8E55256
:101F40000001A56F808407D90001A2511F0A01E09A
:101F500007D0A351240A01E001D001D000D002D063
:101F6000040EDB8880969286DE6ADE6A020EDE6EE2
:101F7000DD6ADD52DD52D9CFE9FFDACFEAFFEFCFDC
:101F80000BF0EE06000EEFCF0CF0EE5AEFCF0DF097
:101F9000EE5AEFCF0EF0EF5A0B500C100D100E1042
:101FA00001E0E9D782B202D0040EDB8A80B602D00B
:101FB000040EDB840F0148970C0EC26EBE0EC16E7C
:101FC000C280DE6ADE6A020EDE6EDD6ADD52DD523E
:101FD000D9CFE9FFDACFEAFFEFCF0BF0EE06000E24
:101FE000EFCF0CF0EE5AEFCF0DF0EE5AEFCF0EF030
:101FF000EF5A0B500C100D100E1001E0E9D7C28201
:10200000C2B2FED70F014869C26AB90EC35C020EA4
:10201000C45802E2040EDB82050EDB6A80BA3BD0B4
:10202000DE683F0EDE6EDE6ADD6ADD52DD52D9CF3C
:10203000E9FFDACFEAFFEFCF0BF0EE06000EEFCFAD
:102040000CF0EE5AEFCF0DF0EE5AEFCF0EF0EF5A44
:102050000B500C100D100E1014E0200E0E01E76E48
:102060000019E8AE02D0E73402D0E750005D03E388
:102070006550020B01E0DBD76CEC04F0D9EC12F0F8
:10208000D6D78274050EDB2ADB50140803E1040E58
:10209000DB8601D0C3D78284040EDB5000D00B6EE8
:1020A000060EE15C02E2E16AE552E16E0B50E55298
:1020B000E7CFD9FF1200D9CFE6FFE1CFD9FFFE0E5F
:1020C000DB50756E73A0FED7FE0E75CFDBFFDB50C5
:1020D00000D0E552E7CFD9FF120092840E01040E22
:1020E000FD6F93948194090ECC6F93868196060EB2
:1020F000FB6F938A819A070EFC6F220E726E400E60
:10210000736E1200808492940E01050EFB6F9396FD
:102110008196090ECC6F939881980A0ECD6F8082BC
:1021200092929382210E726E400E736E1200809610
:102130009296808492940E01010EFB6F9290809093
:10214000090EC66F939A819A0A0ECE6F200E726E98
:10215000400E736E1200726A0E011F0EFB6F9280AA
:10216000C66B938ACE6B9284809492861200000193
:10217000A0510EE1400EE66E600EE66E000EE66EB9
:10218000DCEC11F0E552E552E5520001A06FA16BC5
:102190001200D9CFE6FFE1CFD9FF0001A05100081E
:1021A00015E2A151EA6A600FE96E000EEA22EF50D3
:1021B000E66EFD0EDBCFE9FFFE0EDBCFEAFFE55258
:1021C000E750EF6EA007A12B010E02D0000E00D049
:1021D000E552E7CFD9FF12000001A06BA16B1200FE
:1021E000120012001200120058EF11F01200A9EFB5
:1021F00011F0D9CFE6FFE1CFD9FFFD0EDBCF06F01E
:10220000FE0EDBCF07F0720E061801E1075033E037
:10221000E868061802E1E86807182BE0740E061853
:1022200001E1075024E0750E061801E107501DE09A
:10223000730E061801E1075016E0030E061801E1BF
:1022400007500FE0020E061801E1075008E0010EEA
:10225000061801E1075001E010D0C9DF0FD0C6DF3A
:102260000DD0C2DF0BD0BEDF09D0BADF07D0B9DF97
:1022700005D0B9DF03D0000001D000D0010E00D09E
:10228000E552E7CFD9FF1200D8CFE4FFE0CFE4FF5B
:10229000E46EDACFE4FFE2CFDAFFE652E552E5CFB3
:1022A000DAFFE550E5CFE0FFE5CFD8FF10001200E0
:1022B000040140511F0B010801E04AD04051600B5E
:1022C000E842E842E842E842E842010801E040D042
:1022D000445103E0440501E03BD04151220A33E080
:1022E000030A26E0010A17E0210A0EE0010A01E0D4
:1022F0002FD00E01F00E196F040E1A6F080E1C6F0E
:102300001D6B1B811B8F24D00E01F00E196F040E64
:102310001A6F1B8F1DD046C421FE47C422FE0E013A
:10232000D80E1E6F040E1F6F236B246B208F10D0EE
:102330000E01D80E196F040E1A6F070E1C6F1D6B5D
:10234000C10E1B6F05D042C4EBF40E011B8F00D0F1
:1023500012000401D86B4B0ED96FDA6BDB6BDC6BB0
:10236000DD6B080EDE6FE06BDF6B1A0EE66E020EA1
:10237000E66EFBEC0AF0E552E5521E0EE66E030E29
:10238000E66EFBEC0AF0E552E552400EE66E580EA2
:10239000E66E040EE66EE66A030EE66EA1EC0BF046
:1023A0000B6E050EE15E0B50F3CFE7F4F4CFE8F4CB
:1023B0000401E96BEA6B1200D9CFE6FFE1CFD9FF48
:1023C0000401DF6BE751E81102E1000E08D0E7C419
:1023D000E9FFE8C4EAFFEF50800B01E0010E0009BD
:1023E00045E1FC0EDBCF0BF0E7C4E9FFE8C4EAFFF0
:1023F000EE52EF50D8800B5408E2E7C4E9FFE8C47E
:10240000EAFFEE52FC0EEFCFDBFFDF6BFC0EDB5082
:10241000DF5D19E2DF51EA6A580FE96E040EEA2225
:10242000EF50E66EDF51E76EFD0EDBCFE9FFFE0EEB
:10243000DBCFEAFFE750E926000EEA22E552E7503B
:10244000EF6EDF2BE3D7400EE66E580EE66E040EFD
:10245000E66EE66A030EE66EA1EC0BF00B6E050E5F
:10246000E15E0B50F3CFE7F4F4CFE8F40401DF5161
:1024700000D0E552E7CFD9FF1200D9CFE6FFE1CF78
:10248000D9FF0401E0510CE1FD0EDBCFE1F4FE0EBB
:10249000DBCFE2F4FC0EDBCFE5F4010EE66FE06F7C
:1024A000E552E7CFD9FF1200D9CFE6FFE1CFD9FF40
:1024B000030EE1260401E05101E02ED0DF6AFD0E9B
:1024C000DBCF06F0FE0EDBCF07F0DE5206C0DEFFEC
:1024D00007C0DDFFDD52DF2ADF500B6E0C6AFF0EF6
:1024E0000B1801E10C5001E10BD0010EDBCFE9FF2D
:1024F000DB2A020EDBCFEAFF01E3DB2AEF50EBE140
:10250000FD0EDBCFE1F4FE0EDBCFE2F4DFCFE5F42E
:102510000401010EE66FE06F030EE15C02E2E16A86
:10252000E552E16EE552E7CFD9FF1200D9CFE6FFC1
:10253000E1CFD9FF030EE1260401E05101E02FD0E5
:10254000DF6AFD0EDBCF06F0FE0EDBCF07F0DE52BA
:1025500006C0DEFF07C0DDFFDD52DF2ADF500B6E55
:102560000C6AFF0E0B1801E10C5001E10CD0010EBA
:10257000DBCFF6FFDB2A020EDBCFF7FF01E3DB2A1E
:102580000800F550EAE1FD0EDBCFE1F4FE0EDBCFF3
:10259000E2F4DFCFE5F40401E66B010EE06F030E19
:1025A000E15C02E2E16AE552E16EE552E7CFD9FF74
:1025B0001200D9CFE6FFE1CFD9FF020EE1260401D8
:1025C000E951EA1102E1000E08D0E9C4E9FFEAC4CA
:1025D000EAFFEF50800B01E0010E000901E085D019
:1025E000030EE05D01E1E06BE05101E17ED0020EFF
:1025F000E05D16E1E66A000EE66EE66A010EE66E42
:10260000030EE66EA1EC0BF00B6E050EE15E0B50B7
:10261000F3CFE9F4F4CFEAF40401030EE06F65D0E0
:10262000E00563E1400E0B6E0C6AE5510B5C000E99
:102630000C5803E2400EDF6E02D0E5C4DFFFDF502E
:10264000E55DE56F980EE36F040EE46F010EDFCFDA
:10265000DBFFE65117E1010EDB5013E0E1C4F6FFAA
:10266000E2C4F7FF0800F550E3C4E9FFE4C4EAFF61
:10267000EF6EE32B000EE423E12BE223010EDB06D9
:10268000EAD715D0010EDB5012E0E1C4E9FFE2C445
:10269000EAFFEF50E3C4E9FFE4C4EAFFEF6EE32B87
:1026A000000EE423E12BE223010EDB06EBD7E5511C
:1026B00008E1400EDF5C03E1020EE06F02D0030E82
:1026C000E06FDFCFE6FF980EE66E040EE66E010EB9
:1026D000E66E030EE66EA1EC0BF00B6E050EE15EEE
:1026E0000B50F3CFE9F4F4CFEAF4020EE15C02E21E
:1026F000E16AE552E16EE552E7CFD9FF120012011F
:10270000000202000008D80492FC0001010200014E
:102710000902430002010080640904000001020272
:102720000100052400100104240202052406000112
:1027300005240100010705820308000209040100C5
:10274000020A00000007050302400000070583029B
:102750004000000403090434034D00690063007263
:10276000006F00630068006900700020005400657D
:1027700000630068006E006F006C006F00670079F6
:1027800000200049006E0063002E002C034C006FF7
:1027900000670069006300200053006E0069006656
:1027A0000066006500720020004300440043002DD5
:1027B000003200330032001027532757278B27FFA2
:1027C0002A0EF66E080EF76E000EF86E0001090074
:1027D000F550F06F0900F550F16F03E1F06701D09B
:1027E0003DD00900F550EB6F0900F550EC6F090082
:1027F000F550ED6F09000900F550E96E0900F5503C
:10280000EA6E090009000900F550EE6F0900F55065
:10281000EF6F09000900F6CFF2F0F7CFF3F0F8CF31
:10282000F4F0EBC0F6FFECC0F7FFEDC0F8FF0001DD
:10283000EE5302E1EF5307E00900F550EE6EEE07AC
:10284000F8E2EF07F9D7F2C0F6FFF3C0F7FFF4C0E4
:10285000F8FF0001F007000EF15BBFD71200FE0E7B
:10286000E3CFE9FFFF0EE3CFEAFFE9CFF3FFEACFC3
:10287000F4FFFB0EE35003E1FC0EE35009E0FB0E16
:10288000E30602E2FC0EE306FD0EE350EE6EF1D726
:1028900012001DEE00F02DEE00F0F86A0A9CE0EC4C
:1028A00013F05EEC14F072EC0CF0FBD7120000EEAB
:1028B00000F00E0EEE6AEA62FDD712001200000070
:1028C000FFFFFFFFFFFFFFFFFFFFFFFFFFFFFFFF18
:1028D000FFFFFFFFFFFFFFFFFFFFFFFFFFFFFFFF08
:1028E000FFFFFFFFFFFFFFFFFFFFFFFFFFFFFFFFF8
:1028F000FFFFFFFFFFFFFFFFFFFFFFFFFFFFFFFFE8
:00000001FF
