:020000040000FA
:10000000BFEF14F01200FFFF04EF04F01200FFFF37
:10001000FFFFFFFFFFFFFFFF0CEF04F01200FFFFE9
:10002000FFFFFFFFFFFFFFFFFFFFFFFFFFFFFFFFE0
:10003000FFFFFFFFFFFFFFFFFFFFFFFFFFFFFFFFD0
:10004000FFFFFFFFFFFFFFFFFFFFFFFFFFFFFFFFC0
:10005000FFFFFFFFFFFFFFFFFFFFFFFFFFFFFFFFB0
:10080000BFEF14F01200FFFFB5EF11F01200FFFF71
:10081000FFFFFFFFFFFFFFFFA2EF11F01200FFFF3E
:10082000FFFFFFFFFFFFFFFFFFFF01009C2900000C
:10083000F804000005000000D9CFE6FFE1CFD9FFA2
:10084000E652636A626A0F01160E396F9F0E376FA8
:100850007B0E366F658C386B020EE66EE66AE66AD2
:10086000270EE66E0F0EE66E95EC14F00B6E050E7D
:10087000E15E0B50659CDF6ADF500B6E0C6A100E58
:100880000B5C000E0C5810E2DF50040DF3CFE9FFB3
:10089000F4CFEAFF000EE926040EEA22EE6AEE6AC1
:1008A000EE6AEE6ADF2AE8D70F01160E266F62A6FF
:1008B00002D06296FCD70E011B6B206B216B226B62
:1008C0006598080E0F6F040E106F016B006BE552F8
:1008D000E552E7CFD9FF1200D9CFE6FFE1CFD9FF2C
:1008E000E6520E01005118E107D0656A0F01366B20
:1008F0000E01006BA198B1D0656A0F01366B160E20
:10090000396F9F0E376F7B0E366F65B602D06586E6
:10091000FCD70E01010E006F00050AE165BA08D090
:10092000626A0F01366B368136890E01020E006F46
:100930006250040B06E00F013651040B02E0629492
:10094000BED865A202D0A19888D06250010B13E0F6
:100950000F013651010B0FE06FDF0E01040E006F27
:100960000401400E026F040E036F080E016F006B4E
:100970008C0E001362906250100B06E00F0136518E
:10098000100B02E089D862986250400B14E00F010E
:100990003651400B10E0010EE66EE66A000EE66E80
:1009A000E66A730EE66EE66A57EC11F00B6E060E01
:1009B000E15E0B50629C6250200B05E00F01365146
:1009C000200B01E04FD86250020B13E00F013651AB
:1009D000020B0FE0010EE66EE66A000EE66EE66AB6
:1009E000E668E66857EC11F00B6E060EE15E0B5000
:1009F000636A040E0E01E76E0019E8AE02D0E73418
:100A000002D0E750005D02E2A19827D00F0136A77F
:100A100023D0DF6A040EDF5C1FE262A61AD064CF27
:100A200028FE6296780E0E01281502E15ED810D0DD
:100A3000000EE66EE66A280EE66E0E0EE66E720E8A
:100A4000E66EE66A57EC11F00B6E060EE15E0B5097
:100A500001D002D0DF2ADED7A198E552E552E7CFD8
:100A6000D9FF12000F0126A115D003CEE9FF04CE55
:100A7000EAFFEF5080080DE10FCEE9FF10CEEAFF4C
:100A8000EF50840806E103CEE9FF04CEEAFF8C0EA6
:100A9000EF6E2691629A12000F0136856298658288
:100AA000000EE66EE66AE66EE66A750EE66EE66AC9
:100AB00057EC11F00B6E060EE15E0B501200000EAB
:100AC000E66EE66AE66EE66A740EE66EE66A57EC75
:100AD00011F00B6E060EE15E0B5065920F0136951C
:100AE00062A402D06294FCD71200D9CFE6FFE1CF16
:100AF000D9FFE652FD0E0E0128155AE17E0E28158B
:100B0000E8407F0B040DF3CF03FEF4CF04FE000E8C
:100B10000327040E042303CE05FE04CE06FE05754E
:100B200003CEE9FF04CEEAFFEF503C0BE842E84277
:100B30000D083CE103CEE9FF04CEEAFF020EE926F0
:100B4000000EEA22EECF0BF0EFCF0CF0480E0B18A0
:100B500002E1040E0C1828E103CEE9FF04CEEAFFFF
:100B6000020EE926000EEA22400EEE6E040EED6E35
:100B7000DF6ADF500B6E0C6A080E0B5C000E0C581F
:100B800013E2DF50EA6A480FE96E040EEA22EF50E2
:100B9000E66EDF50EA6A400FE96E040EEA22E55283
:100BA000E750EF6EDF2AE5D70DD801D02ED805D05B
:100BB000FD0E2815040801E14ED8E552E552E7CFB5
:100BC000D9FF12000FCEE9FF10CEEAFFEF50800BE5
:100BD00005E00FCEE9FF10CEEAFFEF6A0E01176BBA
:100BE000186B1C6B1D6B1B6BB9D8000EE66EE66AAA
:100BF000E66EE66A030EE66EE66A57EC11F00B6EDF
:100C0000060EE15E0B505AEF08F0020E0E01185D61
:100C100002E1B0DB1FD06FD80E0129511AE105CED9
:100C2000E9FF06CEEAFFEE52080EEF6E05CEE9FFB1
:100C300006CEEAFF020EE926000EEA22400EEE6E14
:100C4000040EED6E05CEE9FF06CEEAFF8C0EEF6EC8
:100C500001D0296B1200D9CFE6FFE1CFD9FFE652D0
:100C60000FCEE9FF10CEEAFFEF50400B01E0010E7E
:100C7000DF6E0E010F75080E005D0DE142C438FFF6
:100C80000F013851000804E20E01100E006F03D06E
:100C90000E01040E006F180528E10FCEE9FF10CEFB
:100CA000EAFF020EE926000EEA22480EEE6E040E5E
:100CB000ED6ED5DA020E0E01175D07E10FCEE9FFEA
:100CC00010CEEAFF840EEF6E0FD0DF5007E10FCE9B
:100CD000E9FF10CEEAFFC80EEF6E06D00FCEE9FF97
:100CE00010CEEAFF880EEF6E01D005D8E552E5522E
:100CF000E7CFD9FF1200D9CFE6FFE1CFD9FF020E2F
:100D0000E1260E01186B0FCEE9FF10CEEAFFEF6A65
:100D1000040E0F190B6E10CE0CF00BC0DEFF0CC0D2
:100D2000DDFFDECFE9FFDDCFEAFFEF6A20AF0CD0B9
:100D30002351241107E005D024CEFAFF0E012351E0
:100D4000F96EFADF0E01209F020EE15C02E2E16A19
:100D5000E552E16EE552E7CFD9FF120004014051A0
:100D6000600BE842E842E842E842E842000901E05C
:100D700058D041510C0A54E00B0A43E00C0A35E00C
:100D8000010A26E00B0A22E0020A20E0030A1CE026
:100D9000080A10E0010A0CE00F0A08E0030A01E06B
:100DA0003FD00E011B8F080E006F3BD0C8D839D042
:100DB0007FDB37D00E01010E196F0E0E1A6F1B81EB
:100DC000010E1C6F1B8F2DD014D92BD02BD829D0FE
:100DD00044510E01196F1A6B020E19270E0E1A23B9
:100DE0001B81010E1C6F1B8F1CD00E011B8F040179
:100DF0004451EA6A020FE96E0E0EEA2242C4EFFF86
:100E000010D0000EE66EE66AE66EE66A020EE66E48
:100E1000E66A57EC11F00B6E060EE15E0B5001D046
:100E200000D01200D9CFE6FFE1CFD9FF040EE126B2
:100E30000401420510E140511F0B00090CE10E01B5
:100E40001B8F030E0401415D04E10E01010E276FAB
:100E500002D00E01276B0401425167E140511F0B84
:100E6000020863E144510F0B00095FE00E011B8F84
:100E7000040144BF10D044510F0BE96EEA6AD890C8
:100E8000E936EA36070EE9260E0EEA22EECFDEFF3D
:100E9000EDCFDDFF0FD044510F0BE96EEA6AD89019
:100EA000E936EA360F0EE9260E0EEA22EECFDEFF15
:100EB000EDCFDDFF030E415D07E1DECFE9FFDDCFC2
:100EC000EAFF840EEF6E31D044510F0B0C6A260FEF
:100ED0000B6E0F0E0C22020E0BC0DBFF030E0CC0BC
:100EE000DBFF020EDBCFE9FF030EDBCFEAFFEE9064
:100EF000ED5244AF0DD0DECFE9FFDDCFEAFFEF6A60
:100F0000DF74DECFE9FFDDCFEAFF400EEF6E0DD0DC
:100F1000DECFE9FFDDCFEAFF880EEF6EDF74DECFB4
:100F2000E9FFDDCFEAFFC80EEF6E040EE15C02E2DE
:100F3000E16AE552E16EE552E7CFD9FF1200800E7B
:100F40000401405D55E10E01C00E1B6F04014351C9
:100F5000030A2EE0010A0EE0030A03E00E011B6BF8
:100F600047D00E01CA0E196F270E1A6F120E1C6F92
:100F70001D6B3ED04251F66EF76AD890F636F736C2
:100F8000830EF626280EF7220900F5CF19FE0A0077
:100F9000F5CF1AFE020E0E01F76A1925F66E1A51E8
:100FA000F7220900F5CF1CFE0A00F5CF1DFE20D068
:100FB000030E425D1AE24251F66EF76AD890F63699
:100FC000F736850EF626280EF7220900F5CF19FE12
:100FD0000A00F5CF1AFE19CEF6FF1ACEF7FF080069
:100FE000F5500E011C6F1D6B02D00E011B6B00D063
:100FF0001200D9CFE6FFE1CFD9FF020EE1260401AE
:10100000486B496B40511F0B020A12E0030A0DE0C6
:10101000010A01E03BD00E011B8F040148810E0143
:10102000270502E10401488331D00E011B8F2ED029
:101030000E011B8F040144BF10D044510F0BE96E09
:10104000EA6AD890E936EA36070EE9260E0EEA2259
:10105000EECFDEFFEDCFDDFF0FD044510F0BE96E79
:10106000EA6AD890E936EA360F0EE9260E0EEA2231
:10107000EECFDEFFEDCFDDFFDECFE9FFDDCFEAFF14
:10108000EF50040B02E0010E486F00D00E011BAFC1
:1010900007D0480E196F040E1A6F1B81020E1C6FC9
:1010A000020EE15C02E2E16AE552E16EE552E7CF51
:1010B000D9FF120065980E011BBF4AD020AF28D07F
:1010C000020E186F0FCEE9FF10CEEAFFEE52EF6A64
:1010D0000FCEE9FF10CEEAFFC80EEF6E05CEE9FF96
:1010E00006CEEAFFEE52080EEF6E05CEE9FF06CE01
:1010F000EAFF020EE926000EEA22480EEE6E040E0A
:10110000ED6E05CEE9FF06CEEAFFC80EEF6E1FD0EA
:1011100005CEE9FF06CEEAFFEE52080EEF6E05CED1
:10112000E9FF06CEEAFF020EE926000EEA22400E93
:10113000EE6E040EED6E05CEE9FF06CEEAFF8C0ED4
:10114000EF6E0FCEE9FF10CEEAFF840EEF6E86D071
:1011500020BF84D0040140AF59D00E011C510401BE
:10116000465D0E011D510401475904E246C41CFEB0
:1011700047C41DFE74D80E01010E186F05CEE9FF9D
:1011800006CEEAFFEE52080EEF6E05CEE9FF06CE60
:10119000EAFF020EE926000EEA22400EEE6E040E71
:1011A000ED6E05CEE9FF06CEEAFF800EEF6E296BED
:1011B00003CEE9FF04CEEAFFEE52080EEF6E03CE37
:1011C000E9FF04CEEAFF020EE926000EEA22400EF5
:1011D000EE6E040EED6E03CEE9FF04CEEAFF840E40
:1011E000EF6E010E296F0FCEE9FF10CEEAFF020E5F
:1011F000E926000EEA22480EEE6E040EED6E0FCECA
:10120000E9FF10CEEAFFC80EEF6E28D00E01020EE5
:10121000186F0FCEE9FF10CEEAFFEE52EF6A0FCE45
:10122000E9FF10CEEAFFC80EEF6E05CEE9FF06CE4D
:10123000EAFFEE52080EEF6E05CEE9FF06CEEAFF9A
:10124000020EE926000EEA22480EEE6E040EED6E46
:1012500005CEE9FF06CEEAFFC80EEF6E1200D9CF29
:10126000E6FFE1CFD9FF020EE1260E01080E1C5D5C
:10127000000E1D590EE21CCEDEFF1DCEDDFF175104
:1012800003E1010E176F04D0170502E1020E176F7C
:1012900003D0080EDE6EDD6A0FCEE9FF10CEEAFF46
:1012A000EF920FCEE9FF10CEEAFFEF900FCEE9FFED
:1012B00010CEEAFF010EDB50EF120FCEE9FF10CE89
:1012C000EAFFEE52DFCFEFFF000EDB501C5F010E96
:1012D000DB501D5B480E256F040E266F1BB121D01D
:1012E000D9CFE9FFDACFEAFFEE50ED1019E019CEC1
:1012F000F6FF1ACEF7FF192B000E1A230800F5503F
:10130000E66E25CEE9FF26CEEAFF252B000E26232A
:10131000E552E750EF6EDF06010E01E2DB06E0D793
:101320001FD0D9CFE9FFDACFEAFFEE50ED1018E079
:1013300019CEE9FF1ACEEAFF192B000E1A23EF503F
:10134000E66E25CEE9FF26CEEAFF252B000E2623EA
:10135000E552E750EF6EDF06010E01E2DB06E1D752
:10136000020EE15C02E2E16AE552E16EE552E7CF8E
:10137000D9FF1200D9CFE6FFE1CFD9FF020EE12657
:1013800003CEE9FF04CEEAFFEE52EFCFDFFFDFCF5F
:101390000BF00B500E01215D000E225903E221CE0D
:1013A000DFFF09D0DF500B6E0C6A0B50215D216FFF
:1013B0000C502259226F010EDB6ADF50F36E010ED2
:1013C000DBCFF4FFF350F45C16E2010EDB50EA6A67
:1013D000480FE96E040EEA22EF50E66E1ECEE9FFDA
:1013E0001FCEEAFF1E2B000E1F23E552E750EF6EC3
:1013F000010EDB2AE2D7000ED8802155000E2255BF
:1014000028E205CEE9FF06CEEAFFEE52080EEF6EA7
:1014100005CEE9FF06CEEAFF020EE926000EEA221B
:10142000480EEE6E040EED6E03CEE9FF04CEEAFF29
:10143000EF50400B07E105CEE9FF06CEEAFFC80EEC
:10144000EF6E06D005CEE9FF06CEEAFF880EEF6EFE
:1014500025D005CEE9FF06CEEAFFEE52080EEF6E6C
:1014600005CEE9FF06CEEAFF020EE926000EEA22CB
:10147000400EEE6E040EED6E05CEE9FF06CEEAFFDD
:10148000840EEF6E2351241107E005D024CEFAFF1D
:101490000E012351F96EFADF0E01209F020EE15C6E
:1014A00002E2E16AE552E16EE552E7CFD9FF1200B0
:1014B0000E011B8F020EE66EE66AE66A270EE66EE6
:1014C0000F0EE66E95EC14F00B6E050EE15E0B5000
:1014D000010EE66EE66AE66A020EE66E0E0EE66E35
:1014E00095EC14F00B6E050EE15E0B5042C401FE4C
:1014F0000E01015103E1100E006F12D0200E006F9B
:10150000010EE66EE66A010EE66E0E0EE66E010E46
:10151000E66EE66A57EC11F00B6E060EE15E0B50BC
:101520001200D9CFE6FFE1CFD9FF020EE126000E6F
:10153000DE6E040EDD6EFD0EDB50E8240D6EFE0E39
:10154000DB50040DF3500D24040DF3500B6E0C6AA8
:10155000020E0F0B05E0D8900C320B32E806FBE1CF
:10156000D8900B360C36D8900B360C36D9CFE9FF15
:10157000DACFEAFF0B50EE260C50ED22DECFE9FF6A
:10158000DDCFEAFFEF9EFD0EDB500FE1FE0EEA6AB3
:10159000DB34FE0BEA36E96E070EE9260E0EEA2270
:1015A000DECFEEFFDDCFEDFF0ED0FE0EEA6ADB34BC
:1015B000FE0BEA36E96E0F0EE9260E0EEA22DECFAA
:1015C000EEFFDDCFEDFFDECFE9FFDDCFEAFFEF9CE1
:1015D000DECFE9FFDDCFEAFF040EE926000EEA22A6
:1015E000EF8C020EE15C02E2E16AE552E16EE55247
:1015F000E7CFD9FF1200D9CFE6FFE1CFD9FF020E26
:10160000E126FE0EDB500C6A260F0B6E0F0E0C222D
:101610000BC0DEFF0CC0DDFFDECFE9FFDDCFEAFF50
:10162000FD0EDBCFEFFFDBA407D0E66AFE0EDBCFBB
:10163000E6FF77DFE552E552FD0EDBA208D0010E92
:10164000E66EFE0EDBCFE6FF6CDFE552E552020EE2
:10165000E15C02E2E16AE552E16EE552E7CFD9FFD3
:101660001200D9CFE6FFE1CFD9FF020EE126FE0E30
:10167000DB5020E105CEE9FF06CEEAFFEE52080E70
:10168000EF6E05CEE9FF06CEEAFF020EE926000E58
:10169000EA22400EEE6E040EED6E05CEE9FF06CE98
:1016A000EAFF8C0EEF6E0FCEE9FF10CEEAFF840E3C
:1016B000EF6E3DD0FD0EDB50E8240D6EFE0EDB50CC
:1016C000040DF3500D24040DF3CF0BF0F4CF0CF008
:1016D000000E0B26040E0C220BC0DEFF0CC0DDFF3B
:1016E000840E0B6EDECFE9FFDDCFEAFF0B50EF1269
:1016F000FD0EDB50E8240D6EFE0EDB50040DF350A2
:101700000D24010F040DF3CF0BF0F4CF0CF0000EFD
:101710000B26040E0C220BC0DEFF0CC0DDFF840E76
:101720000B6EDECFE9FFDDCFEAFF0B50EF12020EAA
:10173000E15C02E2E16AE552E16EE552E7CFD9FFF2
:101740001200D9CFE6FFE1CFD9FF020EE126FD0E50
:10175000DB500FE0FE0EEA6ADB34FE0BEA36E96E80
:101760000F0EE9260E0EEA22EECFDEFFEDCFDDFFF3
:101770000ED0FE0EEA6ADB34FE0BEA36E96E070E87
:10178000E9260E0EEA22EECFDEFFEDCFDDFFDECF43
:10179000E9FFDDCFEAFF020EE926000EEA22FB0E8A
:1017A000DBCFEEFFFC0EDBCFEDFFDECFE9FFDDCFC1
:1017B000EAFFEE52FA0EDBCFEFFF400E0B6EDECFEC
:1017C000E9FFDDCFEAFF0B50EF16880E0B6EDECF80
:1017D000E9FFDDCFEAFF0B50EF12FD0EDB500CE00E
:1017E000FE0EEA6ADB34FE0BEA36E96E0F0EE926DE
:1017F0000E0EEA22EF740BD0FE0EEA6ADB34FE0B0B
:10180000EA36E96E070EE9260E0EEA22EF74DECF05
:101810000BF0DDCF0CF00BC0F3FF0CC0F4FF020E99
:10182000E15C03E200D0E16AE552E16EE552E7CF08
:10183000D9FF1200D9CFE6FFE1CFD9FF65A84ED07E
:10184000FE0EEA6ADB34FE0BEA36E96E0F0EE9267D
:101850000E0EEA22EE50EFCFEAFFE96E400EEE16D2
:10186000EE6AEE6AEE6AFE0EEA6ADB34FE0BEA36D8
:10187000E96E0F0EE9260E0EEA22EE50EFCFEAFFD8
:10188000E96EEE7CFE0EEA6ADB34FE0BEA36E96EA8
:101890000F0EE9260E0EEA22EF74400E0B6EFE0EBE
:1018A000EA6ADB34FE0BEA36E96E0F0EE9260E0E0D
:1018B000EA22EE50EFCFEAFFE96E0B50EF16FE0E74
:1018C000EA6ADB34FE0BEA36E96E0F0EE9260E0EED
:1018D000EA22EE50EFCFEAFFE96EEF7CE552E7CF68
:1018E000D9FF1200D9CFE6FFE1CFD9FF050EE126DF
:1018F000030EDB6A31DB4AEC11F082A203D090DBED
:101900000401F96F0401F95103E18250020B0FE168
:10191000010EF36E030EF3CFDBFF80969296828466
:10192000F6EC10F00001E26B0001E66B03D082944C
:10193000E0EC10F01CEC04F06CEC04F0200E0E0156
:10194000E76E0019E8AE02D0E73402D0E750005D40
:1019500003E36550020B01E0EFD715EC11F0030E25
:10196000DB5055E181A225D0400E0401F85D20E254
:10197000899282848150020B19E0400E0401F85DC7
:1019800015E27F0EE66ECEEC10F0E552E66E040135
:10199000F851EA6AA20FE96E000EEA22E552E7501A
:1019A000EF6E0401F82B00000000E4D782948982D6
:1019B00015D0D950020FE66E000EDA20E66E27EC45
:1019C00011F0E552E552010809E189928284020E84
:1019D000DB50756E73A0FED7829489820401E051BA
:1019E00013E10401F85100080FE28284F8C4E6FF15
:1019F000A20EE66E000EE66EA3EC12F0E552E55282
:101A0000E5520401F86B82943FEC13F095D7000186
:101A1000E251060A01E180D20F0A01E16AD2030A0B
:101A200001E160D20E0A01E149D2030A01E11FD2AD
:101A3000040A01E1DAD1010A01E171D1070A01E1E9
:101A400048D1040A01E11AD1090A01E1EDD0080ADE
:101A500001E075D2D950020FE66E000EDA20E66E74
:101A600027EC11F0E552E552000901E168D20001CE
:101A7000E651EA6AE70FE96E000EEA22020EDBCFBA
:101A8000EFFF0001E62B0001E651030801E3CBD094
:101A90000001E66B0001E751FF0A01E1B3D0DB0A68
:101AA00001E1ADD0230A01E1A6D0010A01E19FD0F6
:101AB000030A01E198D0010A6CE0070A51E0010A2B
:101AC0000DE0030A07E0010A01E0AAD00001080EB8
:101AD000E26FA9D00001010EE26FA5D00001020E55
:101AE000E26F0001E56B010E0401FB250001E36FCD
:101AF000000E0401FC210001E46F0401FA5114E11D
:101B00000001090EE36F010EE46F8094840EE66E0F
:101B100045DBE552E66A42DBE552E66A3FDBE55229
:101B2000E66A3CDBE5521BD00401FA0518E180941B
:101B3000060EE66E33DBE552808400008094020ED0
:101B4000E66E2CDBE552E8C0E6FF28DBE552E9C093
:101B5000E6FF24DBE552EAC0E6FF20DBE55263D076
:101B60000001030EE26FFBC4E3F0FCC4E4F08094D8
:101B7000030EE66E13DBE552E8C0E6FF0FDBE5522D
:101B8000E9C0E6FF0BDBE552EAC0E6FF07DBE55202
:101B90004AD00001050EE26F0401FA5113E180946E
:101BA000C70EE66EFBDAE552940EE66EF7DAE55202
:101BB000800EE66EF3DAE5529A0EE66EEFDAE55243
:101BC000808410D00401FA050DE18094060EE66EC3
:101BD000E5DAE552808400008094C70EE66EDEDA16
:101BE000E552808420D00001070EE26F1CD0000176
:101BF000090EE26F18D000010A0EE26F14D00BEF4D
:101C000000F011D00001E26B0001E66B8294030E3C
:101C1000DB5002E0000E01D0010EFCDAFF0003D021
:101C20000001060EE26F8BD10401E05126E10001B4
:101C3000480EA26F0001010EA36F0001460EA46FB3
:101C40000001030EA56F0001A66B0001420EA76FF5
:101C5000F86A070EF76EFE0EF66E0900F5CFA8F0D3
:101C6000070EE66EA20EE66E000EE66EA3EC12F014
:101C7000E552E552E5520001E26B61D10401E05109
:101C800027E180949F0EE66E89DAE552E66886DAEF
:101C9000E5520001A26FE66881DAE5520001A36F08
:101CA000E6687CDAE5520001A46FE66877DAE5526F
:101CB0000001A56F8084040EE66EA20EE66E000E93
:101CC000E66EA3EC12F0E552E552E5520001E26B3C
:101CD00036D10401FA5110E18094D70EE66E5EDA37
:101CE000E552E6685BDAE552DF6EDFAE03D0000155
:101CF000040EE26F808412D00401FA050FE1809493
:101D0000050EE66E4BDAE552E66848DAE552DF6E1C
:101D1000DFB003D00001040EE26F808410D1D950EF
:101D2000020FE66E000EDA20E66E91DAE552E55219
:101D3000000901E101D60001010ED880E355000E33
:101D4000E4550EE2020EDBCFE6FF28DAE552020E82
:101D5000DB500001E5270001E307000EE45B44D0FF
:101D600080840001E51F0001E52B020EDB5000011D
:101D7000E55D37E10401FA5120E18094830EE66EBF
:101D80000DDAE552E8C0E6FF09DAE552E9C0E6FF00
:101D900005DAE552EAC0E6FF01DAE5528084809474
:101DA000D70EE66EFBD9E552E668F8D9E552DF6E4C
:101DB000DFBE01D0F9D7808410D00401FA050DE10F
:101DC0008094050EE66EEAD9E552E668E7D9E55259
:101DD000DF6EDFA001D0F9D780840001040EE26F2E
:101DE00003D00001060EE26FAAD00401E0513EE1EB
:101DF0000001400EE35D000EE45904E2010EE3C071
:101E0000DBFF03D0DE52400EDD6E010EDB500B6EA9
:101E10000C6A0B500001E35F0C500001E45BDF6AC9
:101E2000010EDB50DF5C0FE2E668B8D9E552E66EE2
:101E3000DF50EA6AA20FE96E000EEA22E552E7508F
:101E4000EF6EDF2AEDD7010EDBCFE6FFA20EE66EC6
:101E5000000EE66EA3EC12F0E552E552E5520001E9
:101E6000E351E41103E180840001E26B68D00401D6
:101E7000E05123E180940401FA5105E1D70EE66EAA
:101E80008DD9E55207D00401FA0504E1050EE66E8E
:101E900085D9E552E66882D9E5520001A26F8084B7
:101EA000010EE66EA20EE66E000EE66EA3EC12F0D8
:101EB000E552E552E5520001E26B41D00401E051E8
:101EC00010E10001010EA26F010EE66EA20EE66E99
:101ED000000EE66EA3EC12F0E552E552E552000169
:101EE000E26B2DD09DD80401F96F80D90001090E55
:101EF000E26F0401E0510FE1F9C4A2F0010EE66EB9
:101F0000A20EE66E000EE66EA3EC12F0E552E5526C
:101F1000E5520001E26B13D00401E0510FE1000132
:101F2000A26B010EE66EA20EE66E000EE66EA3EC4C
:101F300012F0E552E552E5520001E26B00D03FECB1
:101F400013F0FAD4050EE15C02E2E16AE552E16EBB
:101F5000E552E7CFD9FF1200D9CFE6FFE1CFD9FF95
:101F6000020EE126DE6A080EDD6E0F0148691F0EC3
:101F7000496F92689368FB0E946E82948096929655
:101F8000929289829B8CDFCF0BF0DF06010EDBCFB4
:101F90000CF001E2DB060B500C1001E0F4D70CD87A
:101FA0000401F96F020EE15C02E2E16AE552E16EC2
:101FB000E552E7CFD9FF120019D980949F0EE66E43
:101FC000EDD8E552E668EAD8E5520001A26FE6686E
:101FD000E5D8E5520001A36FE668E0D8E5520001BC
:101FE000A46FE668DBD8E5520001A56F808412D9A2
:101FF0000001A251EF0A0BE0F00A02E0100E0FD030
:102000000401FA6B080EFB6F010EFC6F06D0040191
:10201000010EFA6FFB6BFC6F00D0000E00D01200B7
:10202000D9CFE6FFE1CFD9FF060EE126040EDB6A29
:1020300080969296C1DF0B6E040EDBCFE7FF0B504C
:10204000E712040EE7CFDBFF809692869284DE6A69
:10205000DE6A020EDE6EDD6ADD52DD52D9CFE9FFA7
:10206000DACFEAFFEFCF0BF0EE06000EEFCF0CF069
:10207000EE5AEFCF0DF0EE5AEFCF0EF0EF5A0B50B5
:102080000C100D100E1001E0E9D782B202D0040E40
:10209000DB8A80B602D0040EDB840F0148970C0E59
:1020A000C26EBE0EC16EC280DE6ADE6A020EDE6ED7
:1020B000DD6ADD52DD52D9CFE9FFDACFEAFFEFCF9B
:1020C0000BF0EE06000EEFCF0CF0EE5AEFCF0DF056
:1020D000EE5AEFCF0EF0EF5A0B500C100D100E1001
:1020E00001E0E9D7C282C2B2FED70F014869C26AD5
:1020F000B90EC35C020EC45802E2040EDB82050E68
:10210000DB6A80BA3BD0DE683F0EDE6EDE6ADD6AD7
:10211000DD52DD52D9CFE9FFDACFEAFFEFCF0BF086
:10212000EE06000EEFCF0CF0EE5AEFCF0DF0EE5AA8
:10213000EFCF0EF0EF5A0B500C100D100E1014E0F4
:10214000200E0E01E76E0019E8AE02D0E73402D08F
:10215000E750005D03E36550020B01E0DBD76CEC58
:1021600004F03FEC13F0D6D78274050EDB2ADB5067
:10217000140803E1040EDB8601D0C3D78284040E69
:10218000DB500B6E060EE15C03E200D0E16AE55223
:10219000E16E0B50E552E7CFD9FF1200D9CFE6FF31
:1021A000E1CFD9FFFE0EDB50756E73A0FED7FE0E99
:1021B00075CFDBFFDB5000D0E552E7CFD9FF12002F
:1021C000808492948982929293840E01050EFB6F13
:1021D00093968A96090ECC6F93988A980A0ECD6FC3
:1021E000200E726E400E736E93821200809692964D
:1021F000808492940E01010EFB6F92908090090EE4
:10220000C66F939A819A0A0ECE6F200E726E400EA0
:10221000736E1200726A0E011F0EFB6F9280C66B06
:10222000938ACE6B9284809412000001A0510EE13B
:10223000400EE66E600EE66E000EE66E42EC12F0A8
:10224000E552E552E5520001A06FA16B1200D9CF13
:10225000E6FFE1CFD9FF0001A051000815E2A1512E
:10226000EA6A600FE96E000EEA22EF50E66EFD0E9C
:10227000DBCFE9FFFE0EDBCFEAFFE552E750EF6E62
:10228000A007A12B010E02D0000E00D0E552E7CF2F
:10229000D9FF12000001A06BA16B12001200120006
:1022A00012001200BEEF11F012000FEF12F0D9CFA2
:1022B000E6FFE1CFD9FFFD0EDBCF06F0FE0EDBCF50
:1022C00007F0720E061801E1075033E0E8680618BF
:1022D00002E1E86807182BE0740E061801E10750C8
:1022E00024E0750E061801E107501DE0730E061874
:1022F00001E1075016E0030E061801E107500FE058
:10230000020E061801E1075008E0010E061801E16F
:10231000075001E010D0C9DF0FD0C6DF0DD0C2DFFB
:102320000BD0BEDF09D0BADF07D0B9DF05D0B9DFE7
:1023300003D0000001D000D0010E00D0E552E7CF5D
:10234000D9FF1200D8CFE4FFE0CFE4FFE46EDACF8C
:10235000E4FFE2CFDAFFE652E552E5CFDAFFE550DF
:10236000E5CFE0FFE5CFD8FF1000DACFE4FFE2CF02
:10237000DAFFE652E552E5CFDAFF110004014051E1
:102380001F0B010801E04AD04051600BE842E842CF
:10239000E842E842E842010801E040D0445103E04D
:1023A000440501E03BD04151220A33E0030A26E014
:1023B000010A17E0210A0EE0010A01E02FD00E0108
:1023C000F00E196F040E1A6F080E1C6F1D6B1B8127
:1023D0001B8F24D00E01F00E196F040E1A6F1B8F85
:1023E0001DD046C421FE47C422FE0E01D80E1E6F2A
:1023F000040E1F6F236B246B208F10D00E01D80E9C
:10240000196F040E1A6F070E1C6F1D6BC10E1B6F28
:1024100005D042C4EBF40E011B8F00D01200040162
:10242000D86B4B0ED96FDA6BDB6BDC6BDD6B080E98
:10243000DE6FE06BDF6B1A0EE66E020EE66EFBECF3
:102440000AF0E552E5521E0EE66E030EE66EFBEC58
:102450000AF0E552E552400EE66E580EE66E040EA6
:10246000E66EE66A030EE66EA1EC0BF00B6E050E4F
:10247000E15E0B50F3CFE7F4F4CFE8F40401E96B2D
:10248000EA6B1200D9CFE6FFE1CFD9FF0401DF6B81
:10249000E751E81102E1000E08D0E7C4E9FFE8C403
:1024A000EAFFEF50800B01E0010E000945E1FC0E50
:1024B000DBCF0BF0E7C4E9FFE8C4EAFFEE52EF50D0
:1024C000D8800B5408E2E7C4E9FFE8C4EAFFEE5203
:1024D000FC0EEFCFDBFFDF6BFC0EDB50DF5D19E2A4
:1024E000DF51EA6A580FE96E040EEA22EF50E66EF9
:1024F000DF51E76EFD0EDBCFE9FFFE0EDBCFEAFF1B
:10250000E750E926000EEA22E552E750EF6EDF2B96
:10251000E3D7400EE66E580EE66E040EE66EE66AEF
:10252000030EE66EA1EC0BF00B6E050EE15E0B5098
:10253000F3CFE7F4F4CFE8F40401DF5100D0E55223
:10254000E7CFD9FF1200D9CFE6FFE1CFD9FF0401D1
:10255000E0510CE1FD0EDBCFE1F4FE0EDBCFE2F447
:10256000FC0EDBCFE5F4010EE66FE06FE552E7CF3E
:10257000D9FF1200D9CFE6FFE1CFD9FF030EE12644
:102580000401E05101E02ED0DF6AFD0EDBCF06F042
:10259000FE0EDBCF07F0DE5206C0DEFF07C0DDFF18
:1025A000DD52DF2ADF500B6E0C6AFF0E0B1801E1C3
:1025B0000C5001E10BD0010EDBCFE9FFDB2A020E4C
:1025C000DBCFEAFF01E3DB2AEF50EBE1FD0EDBCFCF
:1025D000E1F4FE0EDBCFE2F4DFCFE5F40401010EFF
:1025E000E66FE06F030EE15C02E2E16AE552E16E44
:1025F000E552E7CFD9FF1200D9CFE6FFE1CFD9FFEF
:10260000030EE1260401E05101E02FD0DF6AFD0E48
:10261000DBCF06F0FE0EDBCF07F0DE5206C0DEFF9A
:1026200007C0DDFFDD52DF2ADF500B6E0C6AFF0EA4
:102630000B1801E10C5001E10CD0010EDBCFF6FFCD
:10264000DB2A020EDBCFF7FF01E3DB2A0800F5509F
:10265000EAE1FD0EDBCFE1F4FE0EDBCFE2F4DFCFEB
:10266000E5F40401E66B010EE06F030EE15C02E2AB
:10267000E16AE552E16EE552E7CFD9FF1200D9CF0A
:10268000E6FFE1CFD9FF020EE1260401E951EA118C
:1026900002E1000E08D0E9C4E9FFEAC4EAFFEF5006
:1026A000800B01E0010E000901E085D0030EE05D22
:1026B00001E1E06BE05101E17ED0020EE05D16E148
:1026C000E66A000EE66EE66A010EE66E030EE66E40
:1026D000A1EC0BF00B6E050EE15E0B50F3CFE9F4AD
:1026E000F4CFEAF40401030EE06F65D0E00563E186
:1026F000400E0B6E0C6AE5510B5C000E0C5803E2A9
:10270000400EDF6E02D0E5C4DFFFDF50E55DE56F10
:10271000980EE36F040EE46F010EDFCFDBFFE6518E
:1027200017E1010EDB5013E0E1C4F6FFE2C4F7FF4E
:102730000800F550E3C4E9FFE4C4EAFFEF6EE32BC1
:10274000000EE423E12BE223010EDB06EAD715D0CD
:10275000010EDB5012E0E1C4E9FFE2C4EAFFEF50F2
:10276000E3C4E9FFE4C4EAFFEF6EE32B000EE423C9
:10277000E12BE223010EDB06EBD7E55108E1400E29
:10278000DF5C03E1020EE06F02D0030EE06FDFCFEB
:10279000E6FF980EE66E040EE66E010EE66E030E80
:1027A000E66EA1EC0BF00B6E050EE15E0B50F3CF65
:1027B000E9F4F4CFEAF4020EE15C02E2E16AE552E8
:1027C000E16EE552E7CFD9FF1200120100020200CC
:1027D0000008D80492FC0001010200010902430034
:1027E00002010080640904000001020201000524C6
:1027F0000010010424020205240600010524010042
:10280000010705820308000209040100020A000012
:102810000007050302400000070583024000000492
:1028200003090434034D006900630072006F006304
:1028300000680069007000200054006500630068B3
:10284000006E006F006C006F006700790020004987
:10285000006E0063002E002C034C006F00670069BF
:10286000006300200053006E00690066006600658A
:1028700000720020004300440043002D003200336A
:10288000003200DC271F2823285728FF2A0EF66E67
:10289000080EF76E000EF86E00010900F550F06F9B
:1028A0000900F550F16F03E1F06701D03DD0090058
:1028B000F550EB6F0900F550EC6F0900F550ED6F26
:1028C00009000900F550E96E0900F550EA6E0900AB
:1028D00009000900F550EE6F0900F550EF6F09008F
:1028E0000900F6CFF2F0F7CFF3F0F8CFF4F0EBC039
:1028F000F6FFECC0F7FFEDC0F8FF0001EE5302E178
:10290000EF5307E00900F550EE6EEE07F8E2EF072F
:10291000F9D7F2C0F6FFF3C0F7FFF4C0F8FF0001EB
:10292000F007000EF15BBFD71200FE0EE3CFE9FF08
:10293000FF0EE3CFEAFFE9CFF3FFEACFF4FFFB0E90
:10294000E35003E1FC0EE35009E0FB0EE30602E274
:10295000FC0EE306FD0EE350EE6EF1D71200C00E42
:10296000F36E00EE00F00E0E01D81200EA6002D005
:10297000EE6AFCD7F350E9601200EE6AFCD71DEE58
:1029800000F02DEE00F0F86A0A9C46EC14F0CDEC55
:1029900014F072EC0CF0FBD71200120000000008DB
:1029A00001FFFFFFFFFFFFFFFFFFFFFFFFFFFFFF35
:1029B000FFFFFFFFFFFFFFFFFFFFFFFFFFFFFFFF27
:1029C000FFFFFFFFFFFFFFFFFFFFFFFFFFFFFFFF17
:1029D000FFFFFFFFFFFFFFFFFFFFFFFFFFFFFFFF07
:1029E000FFFFFFFFFFFFFFFFFFFFFFFFFFFFFFFFF7
:00000001FF
