:020000040000FA
:0600000044EF13F01200B2
:0600080004EF04F01200F9
:060018000CEF04F01200E1
:0608000044EF13F01200AA
:060808004EEF10F012009B
:060818003BEF10F012009E
:02082A000000CC
:04082C00D9CFE6FF3B
:10083000E1CFD9FFE652636A626A0F01160E396F83
:100840009F0E376F7B0E366F658C386B020EE66E2F
:10085000E66AE66A270EE66E0F0EE66E2AEC13F0E5
:100860000B6E050EE15E0B50659CDF6ADF500B6E70
:100870000C6A100E0B5C000E0C5810E2DF50040DD9
:10088000F3CFE9FFF4CFEAFF000EE926040EEA22D7
:10089000EE6AEE6AEE6AEE6ADF2AE8D70F01160EFC
:1008A000266F62A602D06296FCD70E011B6B206BEE
:1008B000216B226B6598080E0F6F040E106F016B91
:1008C000006BE552E552E7CFD9FF1200D9CFE6FF22
:1008D000E1CFD9FFE6520E01005118E107D0656A59
:1008E0000F01366B0E01006BA198B1D0656A0F0144
:1008F000366B160E396F9F0E376F7B0E366F65B6EF
:1009000002D06586FCD70E01010E006F00050AE1DA
:1009100065BA08D0626A0F01366B368136890E01DE
:10092000020E006F6250040B06E00F013651040BFB
:1009300002E06294BED865A202D0A19888D062502D
:10094000010B13E00F013651010B0FE06FDF0E01B9
:10095000040E006F0401400E026F040E036F080EB8
:10096000016F006B8C0E001362906250100B06E05A
:100970000F013651100B02E089D862986250400B8B
:1009800014E00F013651400B10E0010EE66EE66AEE
:10099000000EE66EE66A730EE66EE66AF0EC0FF0A5
:1009A0000B6E060EE15E0B50629C6250200B05E060
:1009B0000F013651200B01E04FD86250020B13E0BB
:1009C0000F013651020B0FE0010EE66EE66A000ED3
:1009D000E66EE66AE668E668F0EC0FF00B6E060E6F
:1009E000E15E0B50636A040E0E01E76E0019E8AE7B
:1009F00002D0E73402D0E750005D02E2A19827D090
:100A00000F0136A723D0DF6A040EDF5C1FE262A667
:100A10001AD064CF28FE6296780E0E01281502E1E6
:100A20005ED810D0000EE66EE66A280EE66E0E0E58
:100A3000E66E720EE66EE66AF0EC0FF00B6E060ED6
:100A4000E15E0B5001D002D0DF2ADED7A198E5523B
:100A5000E552E7CFD9FF12000F0126A115D003CE32
:100A6000E9FF04CEEAFFEF5080080DE10FCEE9FF69
:100A700010CEEAFFEF50840806E103CEE9FF04CE72
:100A8000EAFF8C0EEF6E2691629A12000F013685F6
:100A900062986582000EE66EE66AE66EE66A750E9C
:100AA000E66EE66AF0EC0FF00B6E060EE15E0B50A0
:100AB0001200000EE66EE66AE66EE66A740EE66EF8
:100AC000E66AF0EC0FF00B6E060EE15E0B506592DD
:100AD0000F01369562A402D06294FCD71200D9CFE0
:100AE000E6FFE1CFD9FFE652FD0E0E0128155AE1CF
:100AF0007E0E2815E8407F0B040DF3CF03FEF4CFE4
:100B000004FE000E0327040E042303CE05FE04CECC
:100B100006FE057503CEE9FF04CEEAFFEF503C0B5D
:100B2000E842E8420D083CE103CEE9FF04CEEAFFCB
:100B3000020EE926000EEA22EECF0BF0EFCF0CF00A
:100B4000480E0B1802E1040E0C1828E103CEE9FF51
:100B500004CEEAFF020EE926000EEA22400EEE6EF7
:100B6000040EED6EDF6ADF500B6E0C6A080E0B5C34
:100B7000000E0C5813E2DF50EA6A480FE96E040ECB
:100B8000EA22EF50E66EDF50EA6A400FE96E040E8B
:100B9000EA22E552E750EF6EDF2AE5D70DD801D003
:100BA0002ED805D0FD0E2815040801E14ED8E552D7
:100BB000E552E7CFD9FF12000FCEE9FF10CEEAFFD2
:100BC000EF50800B05E00FCEE9FF10CEEAFFEF6A91
:100BD0000E01176B186B1C6B1D6B1B6BB9D8000ECD
:100BE000E66EE66AE66EE66A030EE66EE66AF0EC2C
:100BF0000FF00B6E060EE15E0B5054EF08F0020E84
:100C00000E01185D02E1B0DB1FD06FD80E01295133
:100C10001AE105CEE9FF06CEEAFFEE52080EEF6EAE
:100C200005CEE9FF06CEEAFF020EE926000EEA2213
:100C3000400EEE6E040EED6E05CEE9FF06CEEAFF25
:100C40008C0EEF6E01D0296B1200D9CFE6FFE1CFF9
:100C5000D9FFE6520FCEE9FF10CEEAFFEF50400B6E
:100C600001E0010EDF6E0E010F75080E005D0DE153
:100C700042C438FF0F013851000804E20E01100E83
:100C8000006F03D00E01040E006F180528E10FCE8F
:100C9000E9FF10CEEAFF020EE926000EEA22480E16
:100CA000EE6E040EED6ED5DA020E0E01175D07E151
:100CB0000FCEE9FF10CEEAFF840EEF6E0FD0DF50AB
:100CC00007E10FCEE9FF10CEEAFFC80EEF6E06D0A7
:100CD0000FCEE9FF10CEEAFF880EEF6E01D005D8E7
:100CE000E552E552E7CFD9FF1200D9CFE6FFE1CFB9
:100CF000D9FF020EE1260E01186B0FCEE9FF10CED0
:100D0000EAFFEF6A040E0F190B6E10CE0CF00BC049
:100D1000DEFF0CC0DDFFDECFE9FFDDCFEAFFEF6ACB
:100D200020AF0CD02351241107E005D024CEFAFFC8
:100D30000E012351F96EFADF0E01209F020EE15CD5
:100D400002E2E16AE552E16EE552E7CFD9FF120017
:100D500004014051600BE842E842E842E842E842C0
:100D6000000901E058D041510C0A54E00B0A43E05D
:100D70000C0A35E0010A26E00B0A22E0020A20E014
:100D8000030A1CE0080A10E0010A0CE00F0A08E060
:100D9000030A01E03FD00E011B8F080E006F3BD00D
:100DA000C8D839D07FDB37D00E01010E196F0E0E77
:100DB0001A6F1B81010E1C6F1B8F2DD014D92BD0E5
:100DC0002BD829D044510E01196F1A6B020E192726
:100DD0000E0E1A231B81010E1C6F1B8F1CD00E01DF
:100DE0001B8F04014451EA6A020FE96E0E0EEA22DB
:100DF00042C4EFFF10D0000EE66EE66AE66EE66AC9
:100E0000020EE66EE66AF0EC0FF00B6E060EE15E87
:100E10000B5001D000D01200D9CFE6FFE1CFD9FFAF
:100E2000040EE1260401420510E140511F0B0009A8
:100E30000CE10E011B8F030E0401415D04E10E0164
:100E4000010E276F02D00E01276B0401425167E1AA
:100E500040511F0B020863E144510F0B00095FE092
:100E60000E011B8F040144BF10D044510F0BE96EDB
:100E7000EA6AD890E936EA36070EE9260E0EEA222B
:100E8000EECFDEFFEDCFDDFF0FD044510F0BE96E4B
:100E9000EA6AD890E936EA360F0EE9260E0EEA2203
:100EA000EECFDEFFEDCFDDFF030E415D07E1DECFCC
:100EB000E9FFDDCFEAFF840EEF6E31D044510F0B16
:100EC0000C6A260F0B6E0F0E0C22020E0BC0DBFFFE
:100ED000030E0CC0DBFF020EDBCFE9FF030EDBCFFE
:100EE000EAFFEE90ED5244AF0DD0DECFE9FFDDCF4B
:100EF000EAFFEF6ADF74DECFE9FFDDCFEAFF400EE5
:100F0000EF6E0DD0DECFE9FFDDCFEAFF880EEF6E8A
:100F1000DF74DECFE9FFDDCFEAFFC80EEF6E040E0F
:100F2000E15C02E2E16AE552E16EE552E7CFD9FF0A
:100F30001200800E0401405D55E10E01C00E1B6FD2
:100F400004014351030A2EE0010A0EE0030A03E004
:100F50000E011B6B47D00E01EC0E196F240E1A6F99
:100F6000120E1C6F1D6B3ED04251F66EF76AD89080
:100F7000F636F736AD0EF626250EF7220900F5CF28
:100F800019FE0A00F5CF1AFE020E0E01F76A1925A6
:100F9000F66E1A51F7220900F5CF1CFE0A00F5CFB4
:100FA0001DFE20D0030E425D1AE24251F66EF76A32
:100FB000D890F636F736AF0EF626250EF722090042
:100FC000F5CF19FE0A00F5CF1AFE19CEF6FF1ACE9C
:100FD000F7FF0800F5500E011C6F1D6B02D00E01CB
:100FE0001B6B00D01200D9CFE6FFE1CFD9FF020E74
:100FF000E1260401486B496B40511F0B020A12E0C5
:10100000030A0DE0010A01E03BD00E011B8F040131
:1010100048810E01270502E10401488331D00E0109
:101020001B8F2ED00E011B8F040144BF10D04451E2
:101030000F0BE96EEA6AD890E936EA36070EE92620
:101040000E0EEA22EECFDEFFEDCFDDFF0FD04451D2
:101050000F0BE96EEA6AD890E936EA360F0EE926F8
:101060000E0EEA22EECFDEFFEDCFDDFFDECFE9FF91
:10107000DDCFEAFFEF50040B02E0010E486F00D015
:101080000E011BAF07D0480E196F040E1A6F1B819B
:10109000020E1C6F020EE15C02E2E16AE552E16EB3
:1010A000E552E7CFD9FF120065980E011BBF4AD069
:1010B00020AF28D0020E186F0FCEE9FF10CEEAFF46
:1010C000EE52EF6A0FCEE9FF10CEEAFFC80EEF6EC8
:1010D00005CEE9FF06CEEAFFEE52080EEF6E05CE12
:1010E000E9FF06CEEAFF020EE926000EEA22480ECC
:1010F000EE6E040EED6E05CEE9FF06CEEAFFC80ED9
:10110000EF6E1FD005CEE9FF06CEEAFFEE52080EC5
:10111000EF6E05CEE9FF06CEEAFF020EE926000ECD
:10112000EA22400EEE6E040EED6E05CEE9FF06CE0D
:10113000EAFF8C0EEF6E0FCEE9FF10CEEAFF840EB1
:10114000EF6E86D020BF84D0040140AF59D00E018D
:101150001C510401465D0E011D510401475904E272
:1011600046C41CFE47C41DFE74D80E01010E186F44
:1011700005CEE9FF06CEEAFFEE52080EEF6E05CE71
:10118000E9FF06CEEAFF020EE926000EEA22400E33
:10119000EE6E040EED6E05CEE9FF06CEEAFF800E80
:1011A000EF6E296B03CEE9FF04CEEAFFEE52080E84
:1011B000EF6E03CEE9FF04CEEAFF020EE926000E31
:1011C000EA22400EEE6E040EED6E03CEE9FF04CE71
:1011D000EAFF840EEF6E010E296F0FCEE9FF10CEED
:1011E000EAFF020EE926000EEA22480EEE6E040E19
:1011F000ED6E0FCEE9FF10CEEAFFC80EEF6E28D0DD
:101200000E01020E186F0FCEE9FF10CEEAFFEE526C
:10121000EF6A0FCEE9FF10CEEAFFC80EEF6E05CEE3
:10122000E9FF06CEEAFFEE52080EEF6E05CEE9FFAB
:1012300006CEEAFF020EE926000EEA22480EEE6E06
:10124000040EED6E05CEE9FF06CEEAFFC80EEF6E86
:101250001200D9CFE6FFE1CFD9FF020EE1260E0141
:10126000080E1C5D000E1D590EE21CCEDEFF1DCEC9
:10127000DDFF175103E1010E176F04D0170502E1DE
:10128000020E176F03D0080EDE6EDD6A0FCEE9FF87
:1012900010CEEAFFEF920FCEE9FF10CEEAFFEF90FB
:1012A0000FCEE9FF10CEEAFF010EDB50EF120FCE9A
:1012B000E9FF10CEEAFFEE52DFCFEFFF000EDB506A
:1012C0001C5F010EDB501D5B480E256F040E266F60
:1012D0001BB121D0D9CFE9FFDACFEAFFEE50ED10F4
:1012E00019E019CEF6FF1ACEF7FF192B000E1A23BC
:1012F0000800F550E66E25CEE9FF26CEEAFF252B45
:10130000000E2623E552E750EF6EDF06010E01E2E4
:10131000DB06E0D71FD0D9CFE9FFDACFEAFFEE50E6
:10132000ED1018E019CEE9FF1ACEEAFF192B000ED6
:101330001A23EF50E66E25CEE9FF26CEEAFF252BD5
:10134000000E2623E552E750EF6EDF06010E01E2A4
:10135000DB06E1D7020EE15C02E2E16AE552E16EF2
:10136000E552E7CFD9FF1200D9CFE6FFE1CFD9FF91
:10137000020EE12603CEE9FF04CEEAFFEE52EFCFE4
:10138000DFFFDFCF0BF00B500E01215D000E225965
:1013900003E221CEDFFF09D0DF500B6E0C6A0B5049
:1013A000215D216F0C502259226F010EDB6ADF5044
:1013B000F36E010EDBCFF4FFF350F45C16E2010E86
:1013C000DB50EA6A480FE96E040EEA22EF50E66E3F
:1013D0001ECEE9FF1FCEEAFF1E2B000E1F23E55293
:1013E000E750EF6E010EDB2AE2D7000ED8802155C0
:1013F000000E225528E205CEE9FF06CEEAFFEE52A6
:10140000080EEF6E05CEE9FF06CEEAFF020EE926D2
:10141000000EEA22480EEE6E040EED6E03CEE9FFDA
:1014200004CEEAFFEF50400B07E105CEE9FF06CE00
:10143000EAFFC80EEF6E06D005CEE9FF06CEEAFF42
:10144000880EEF6E25D005CEE9FF06CEEAFFEE52FC
:10145000080EEF6E05CEE9FF06CEEAFF020EE92682
:10146000000EEA22400EEE6E040EED6E05CEE9FF90
:1014700006CEEAFF840EEF6E2351241107E005D05B
:1014800024CEFAFF0E012351F96EFADF0E01209FE0
:10149000020EE15C02E2E16AE552E16EE552E7CF5D
:1014A000D9FF12000E011B8F020EE66EE66AE66A95
:1014B000270EE66E0F0EE66E2AEC13F00B6E050E8D
:1014C000E15E0B50010EE66EE66AE66A020EE66E1B
:1014D0000E0EE66E2AEC13F00B6E050EE15E0B505D
:1014E00042C401FE0E01015103E1100E006F12D043
:1014F000200E006F010EE66EE66A010EE66E0E0E1D
:10150000E66E010EE66EE66AF0EC0FF00B6E060E6C
:10151000E15E0B501200D9CFE6FFE1CFD9FF020EFA
:10152000E126000EDE6E040EDD6EFD0EDB50E824BB
:101530000D6EFE0EDB50040DF3500D24040DF35020
:101540000B6E0C6A020E0F0B05E0D8900C320B32BA
:10155000E806FBE1D8900B360C36D8900B360C36EB
:10156000D9CFE9FFDACFEAFF0B50EE260C50ED227F
:10157000DECFE9FFDDCFEAFFEF9EFD0EDB500FE18E
:10158000FE0EEA6ADB34FE0BEA36E96E070EE92648
:101590000E0EEA22DECFEEFFDDCFEDFF0ED0FE0E07
:1015A000EA6ADB34FE0BEA36E96E0F0EE9260E0E10
:1015B000EA22DECFEEFFDDCFEDFFDECFE9FFDDCFAC
:1015C000EAFFEF9CDECFE9FFDDCFEAFF040EE9265C
:1015D000000EEA22EF8C020EE15C02E2E16AE552C3
:1015E000E16EE552E7CFD9FF1200D9CFE6FFE1CF98
:1015F000D9FF020EE126FE0EDB500C6A260F0B6EA1
:101600000F0E0C220BC0DEFF0CC0DDFFDECFE9FFAA
:10161000DDCFEAFFFD0EDBCFEFFFDBA407D0E66AEC
:10162000FE0EDBCFE6FF77DFE552E552FD0EDBA2D3
:1016300008D0010EE66EFE0EDBCFE6FF6CDFE55252
:10164000E552020EE15C02E2E16AE552E16EE5522A
:10165000E7CFD9FF1200D9CFE6FFE1CFD9FF020EC5
:10166000E126FE0EDB5020E105CEE9FF06CEEAFFC3
:10167000EE52080EEF6E05CEE9FF06CEEAFF020E2F
:10168000E926000EEA22400EEE6E040EED6E05CE47
:10169000E9FF06CEEAFF8C0EEF6E0FCEE9FF10CE0B
:1016A000EAFF840EEF6E3DD0FD0EDB50E8240D6E98
:1016B000FE0EDB50040DF3500D24040DF3CF0BF0A0
:1016C000F4CF0CF0000E0B26040E0C220BC0DEFF34
:1016D0000CC0DDFF840E0B6EDECFE9FFDDCFEAFF2D
:1016E0000B50EF12FD0EDB50E8240D6EFE0EDB50AA
:1016F000040DF3500D24010F040DF3CF0BF0F4CFC4
:101700000CF0000E0B26040E0C220BC0DEFF0CC0EA
:10171000DDFF840E0B6EDECFE9FFDDCFEAFF0B505D
:10172000EF12020EE15C02E2E16AE552E16EE5527F
:10173000E7CFD9FF1200D9CFE6FFE1CFD9FF020EE4
:10174000E126FD0EDB500FE0FE0EEA6ADB34FE0BF5
:10175000EA36E96E0F0EE9260E0EEA22EECFDEFF24
:10176000EDCFDDFF0ED0FE0EEA6ADB34FE0BEA366B
:10177000E96E070EE9260E0EEA22EECFDEFFEDCF70
:10178000DDFFDECFE9FFDDCFEAFF020EE926000E26
:10179000EA22FB0EDBCFEEFFFC0EDBCFEDFFDECF50
:1017A000E9FFDDCFEAFFEE52FA0EDBCFEFFF400E8E
:1017B0000B6EDECFE9FFDDCFEAFF0B50EF16880E90
:1017C0000B6EDECFE9FFDDCFEAFF0B50EF12FD0E0F
:1017D000DB500CE0FE0EEA6ADB34FE0BEA36E96E03
:1017E0000F0EE9260E0EEA22EF740BD0FE0EEA6A07
:1017F000DB34FE0BEA36E96E070EE9260E0EEA220E
:10180000EF74DECF0BF0DDCF0CF00BC0F3FF0CC09C
:10181000F4FF020EE15C03E200D0E16AE552E16E02
:10182000E552E7CFD9FF1200D9CFE6FFE1CFD9FFCC
:1018300065A84ED0FE0EEA6ADB34FE0BEA36E96E8E
:101840000F0EE9260E0EEA22EE50EFCFEAFFE96E08
:10185000400EEE16EE6AEE6AEE6AFE0EEA6ADB34BF
:10186000FE0BEA36E96E0F0EE9260E0EEA22EE5066
:10187000EFCFEAFFE96EEE7CFE0EEA6ADB34FE0B88
:10188000EA36E96E0F0EE9260E0EEA22EF74400EDC
:101890000B6EFE0EEA6ADB34FE0BEA36E96E0F0EC3
:1018A000E9260E0EEA22EE50EFCFEAFFE96E0B506A
:1018B000EF16FE0EEA6ADB34FE0BEA36E96E0F0E17
:1018C000E9260E0EEA22EE50EFCFEAFFE96EEF7C3A
:0818D000E552E7CFD9FF120039
:0818D800D9CFE6FFE1CFD9FFF3
:1018E0000C0EE126030EDB6A040EDB6ACBDA6BDB3F
:1018F00082B206D0010EF36E030EF3CFDBFF48D0A9
:1019000080B625D0060EDB6A070EDB6A020EF36E88
:10191000080EF3CFDBFF090EDB6AD950060FE96E24
:10192000DACFEAFFEFCF0BF0EE06000EEFCF0CF0B0
:10193000EE5AEFCF0DF0EE5AEFCF0EF0EF5A0B50FC
:101940000C100D100E1001E0E8D78274DBD7DF6AAF
:1019500080BA1DD00A0EDB680B0EDB680A0EDBCFE7
:101960000BF0DB060B0EDBCF0CF001E2DB060B50BD
:101970000C1001E0F3D78274DF2A500EDF5C06E121
:10198000010EF36E030EF3CFDBFF01D0E1D782949B
:10199000030EDB0407E18284C1DA0001E26B00017F
:1019A000E66B01D098DA16EC04F0010EF36E050E2A
:1019B000F3CFDBFF948E949C8B9CDF6A140EDF5C6C
:1019C00012E28B7C00008B50400B01E0010E0B6E8D
:1019D0008250800B01E0010E0B5C03E0050EDB6A18
:1019E00002D0DF2AEBD78B9C050EDB0405E1828455
:1019F000A8A2FED7030EA96E66EC04F0200E0E011D
:101A0000E76E0019E8AE02D0E73402D0E750005D7F
:101A100003E36550020B01E0EFD7A0DA030EDB50C1
:101A20003BE1A8A210D0D950020FE66E000EDA20DA
:101A3000E66EA6DAE552E552010805E18284020E5F
:101A4000DB50A96E8294A4AA0DD08284040EDB50D0
:101A5000EA6AA20FE96E000EEA22AACFEFFF040E97
:101A6000DB2A82940401E05114E1040EDB500008EB
:101A700010E28284040EDBCFE6FFA20EE66E000EBB
:101A8000E66E34EC11F0E552E552E552040EDB6AE5
:101A90008294D0EC11F0B0D70001E251060A01E1C6
:101AA000D1D1020A01E1BAD1030A01E19BD1040AB2
:101AB00001E156D1010A01E101D1070A01E1EED0AD
:101AC000040A01E1C0D0090A01E193D0080A01E04B
:101AD000CCD1D950020FE66E000EDA20E66E50DA55
:101AE000E552E552000901E187D70001E651EA6AB3
:101AF000E70FE96E000EEA22020EDBCFEFFF0001D6
:101B0000E62B0001E651030873E20001E66B0001D9
:101B1000E751FF0A67E0DB0A62E0210A5CE0010AA4
:101B200044E0070A28E0010A0DE0030A07E0010A81
:101B300001E05BD00001080EE26F5AD00001010EF7
:101B4000E26F56D00001020EE26F0001090EE36F52
:101B5000010EE46F0001E56B8094840EE66ECCD933
:101B6000E552E66AC9D9E552E66AC6D9E552E66A9F
:101B7000C3D9E5523DD00001030EE26F0001080E0B
:101B8000E36F010EE46F8094030EE66EB5D9E55263
:101B9000E8C0E6FFB1D9E552E9C0E6FFADD9E552AC
:101BA000EAC0E6FFA9D9E55223D00001050EE26F95
:101BB0008094C70EE66EA0D9E552940EE66E9CD9CD
:101BC000E552800EE66E98D9E5529A0EE66E94D9EB
:101BD000E55280840DD00001070EE26F09D00BEFB3
:101BE00000F006D0AFD9FF0003D00001060EE26F6F
:101BF0003CD10401E05126E10001480EA26F000132
:101C0000010EA36F0001460EA46F0001A56B000139
:101C1000020EA66F0001420EA76FF86A070EF76E5C
:101C2000FE0EF66E0900F5CFA8F0070EE66EA20EC6
:101C3000E66E000EE66E34EC11F0E552E552E55228
:101C40000001E26B12D10401E05127E180949F0E64
:101C5000E66E52D9E552E6684FD9E5520001A26F0F
:101C6000E6684AD9E5520001A36FE66845D9E55216
:101C70000001A46FE66840D9E5520001A56F808499
:101C8000040EE66EA20EE66E000EE66E34EC11F067
:101C9000E552E552E5520001E26BE7D08094D70EA1
:101CA000E66E2AD9E552E66827D9E552DF6EDFAE47
:101CB00003D00001040EE26F8084D7D0D950020F08
:101CC000E66E000EDA20E66E5BD9E552E5520009B9
:101CD00001E192D60001010ED880E355000EE455D3
:101CE0000EE2020EDBCFE6FF07D9E552020EDB5013
:101CF0000001E5270001E307000EE45B30D080849B
:101D00000001E51F0001E52B020EDB500001E55D3F
:101D100023E18094830EE66EEFD8E552E8C0E6FF3B
:101D2000EBD8E552E9C0E6FFE7D8E552EAC0E6FFA6
:101D3000E3D8E55280848094D70EE66EDDD8E55274
:101D4000E668DAD8E552DF6EDFBE01D0F9D78084CD
:101D50000001040EE26F03D00001060EE26F85D091
:101D60000401E0513EE10001400EE35D000EE45944
:101D700004E2010EE3C0DBFF03D0DE52400EDD6E55
:101D8000010EDB500B6E0C6A0B500001E35F0C5030
:101D90000001E45BDF6A010EDB50DF5C0FE2E66806
:101DA000ABD8E552E66EDF50EA6AA20FE96E000E8C
:101DB000EA22E552E750EF6EDF2AEDD7010EDBCFC6
:101DC000E6FFA20EE66E000EE66E34EC11F0E55270
:101DD000E552E5520001E351E41103E18084000182
:101DE000E26B43D00401E05118E18094D70EE66E17
:101DF00083D8E552E66880D8E5520001A26F80845E
:101E0000010EE66EA20EE66E000EE66E34EC11F0E8
:101E1000E552E552E5520001E26B27D00401E051A2
:101E200010E10001010EA26F010EE66EA20EE66E39
:101E3000000EE66E34EC11F0E552E552E552000179
:101E4000E26B13D00401E0510FE10001A26B010E1F
:101E5000E66EA20EE66E000EE66E34EC11F0E55270
:101E6000E552E5520001E26B00D0D0EC11F0C4D590
:101E70000C0EE15C02E2E16AE552E16EE552E7CF69
:101E8000D9FF1200D9CFE6FFE1CFD9FF020EE1263C
:101E9000BC0EDE6E020EDD6E9B8CDFCF0BF0DF061C
:101EA000010EDBCF0CF001E2DB060B500C1001E061
:101EB000F4D70F014869496992689368FB0E946EE4
:101EC0008294020EE15C02E2E16AE552E16EE552C3
:101ED000E7CFD9FF1200949C8B9C939281920E01C4
:101EE000050ECA6FF66F7D6A190EAB6E7C6A260E00
:101EF000A86E900E9C6E1200D9CFE6FFE1CFD9FFFD
:101F0000FE0EDB50756E73A0FED7FE0E75CFDBFFA5
:101F1000DB5000D0E552E7CFD9FF120080969296B1
:101F2000808492940E01010EFB6F92908090090EB6
:101F3000C66F939A819A0A0ECE6F200E726E400E73
:101F4000736E1200726A0E011F0EFB6F9280C66BD9
:101F5000938ACE6B92848094928612000001A051E5
:101F60000EE1400EE66E600EE66E000EE66ED3ECFD
:101F700010F0E552E552E5520001A06FA16B12008E
:101F8000D9CFE6FFE1CFD9FF0001A051000815E24B
:101F9000A151EA6A600FE96E000EEA22EF50E66E88
:101FA000FD0EDBCFE9FFFE0EDBCFEAFFE552E75087
:101FB000EF6EA007A12B010E02D0000E00D0E5525B
:101FC000E7CFD9FF12000001A06BA16B1200120035
:101FD0001200120012004FEF10F01200A0EF10F0EC
:101FE000D9CFE6FFE1CFD9FFFD0EDBCF06F0FE0E25
:101FF000DBCF07F0720E061801E1075033E0E86806
:10200000061802E1E86807182BE0740E061801E1D3
:10201000075024E0750E061801E107501DE0730E0D
:10202000061801E1075016E0030E061801E10750FB
:102030000FE0020E061801E1075008E0010E061835
:1020400001E1075001E010D0C9DF0FD0C6DF0DD08D
:10205000C2DF0BD0BEDF09D0BADF07D0B9DF05D0B1
:10206000B9DF03D0000001D000D0010E00D0E5524E
:10207000E7CFD9FF1200D8CFE4FFE0CFE4FFE46E52
:10208000DACFE4FFE2CFDAFFE652E552E5CFDAFF3E
:0E209000E550E5CFE0FFE5CFD8FF10001200CD
:02209E0004013B
:1020A00040511F0B010801E04AD04051600BE8424B
:1020B000E842E842E842E842010801E040D04451E9
:1020C00003E0440501E03BD04151220A33E0030A1A
:1020D00026E0010A17E0210A0EE0010A01E02FD0F4
:1020E0000E01F00E196F040E1A6F080E1C6F1D6B97
:1020F0001B811B8F24D00E01F00E196F040E1A6F76
:102100001B8F1DD046C421FE47C422FE0E01D80EEF
:102110001E6F040E1F6F236B246B208F10D00E01D7
:10212000D80E196F040E1A6F070E1C6F1D6BC10EAF
:102130001B6F05D042C4EBF40E011B8F00D01200C0
:102140000401D86B4B0ED96FDA6BDB6BDC6BDD6B8C
:10215000080EDE6FE06BDF6B1A0EE66E020EE66EA7
:10216000F5EC0AF0E552E5521E0EE66E030EE66E41
:10217000F5EC0AF0E552E552400EE66E580EE66EBA
:10218000040EE66EE66A030EE66E9BEC0BF00B6E39
:10219000050EE15E0B50F3CFE7F4F4CFE8F4040151
:1021A000E96BEA6B1200D9CFE6FFE1CFD9FF04015A
:1021B000DF6BE751E81102E1000E08D0E7C4E9FF48
:1021C000E8C4EAFFEF50800B01E0010E000945E191
:1021D000FC0EDBCF0BF0E7C4E9FFE8C4EAFFEE52E8
:1021E000EF50D8800B5408E2E7C4E9FFE8C4EAFFE7
:1021F000EE52FC0EEFCFDBFFDF6BFC0EDB50DF5D42
:1022000019E2DF51EA6A580FE96E040EEA22EF5034
:10221000E66EDF51E76EFD0EDBCFE9FFFE0EDBCF92
:10222000EAFFE750E926000EEA22E552E750EF6E9A
:10223000DF2BE3D7400EE66E580EE66E040EE66E18
:10224000E66A030EE66E9BEC0BF00B6E050EE15E8C
:102250000B50F3CFE7F4F4CFE8F40401DF5100D0E2
:10226000E552E7CFD9FF1200D9CFE6FFE1CFD9FF82
:102270000401E0510CE1FD0EDBCFE1F4FE0EDBCFFB
:10228000E2F4FC0EDBCFE5F4010EE66FE06FE55201
:10229000E7CFD9FF1200D9CFE6FFE1CFD9FF030E78
:1022A000E1260401E05101E02ED0DF6AFD0EDBCF14
:1022B00006F0FE0EDBCF07F0DE5206C0DEFF07C0E1
:1022C000DDFFDD52DF2ADF500B6E0C6AFF0E0B18AC
:1022D00001E10C5001E10BD0010EDBCFE9FFDB2A5D
:1022E000020EDBCFEAFF01E3DB2AEF50EBE1FD0E4C
:1022F000DBCFE1F4FE0EDBCFE2F4DFCFE5F4040147
:10230000010EE66FE06F030EE15C02E2E16AE55266
:10231000E16EE552E7CFD9FF1200D9CFE6FFE1CF5A
:10232000D9FF030EE1260401E05101E02FD0DF6A5E
:10233000FD0EDBCF06F0FE0EDBCF07F0DE5206C04F
:10234000DEFF07C0DDFFDD52DF2ADF500B6E0C6AB7
:10235000FF0E0B1801E10C5001E10CD0010EDBCF98
:10236000F6FFDB2A020EDBCFF7FF01E3DB2A0800D2
:10237000F550EAE1FD0EDBCFE1F4FE0EDBCFE2F437
:10238000DFCFE5F40401E66B010EE06F030EE15CC4
:1023900002E2E16AE552E16EE552E7CFD9FF1200B1
:1023A000D9CFE6FFE1CFD9FF020EE1260401E951C2
:1023B000EA1102E1000E08D0E9C4E9FFEAC4EAFF2D
:1023C000EF50800B01E0010E000901E085D0030E03
:1023D000E05D01E1E06BE05101E17ED0020EE05DE5
:1023E00016E1E66A000EE66EE66A010EE66E030E80
:1023F000E66E9BEC0BF00B6E050EE15E0B50F3CF1F
:10240000E9F4F4CFEAF40401030EE06F65D0E005CF
:1024100063E1400E0B6E0C6AE5510B5C000E0C582C
:1024200003E2400EDF6E02D0E5C4DFFFDF50E55D62
:10243000E56F980EE36F040EE46F010EDFCFDBFF54
:10244000E65117E1010EDB5013E0E1C4F6FFE2C4F0
:10245000F7FF0800F550E3C4E9FFE4C4EAFFEF6EBC
:10246000E32B000EE423E12BE223010EDB06EAD787
:1024700015D0010EDB5012E0E1C4E9FFE2C4EAFF2F
:10248000EF50E3C4E9FFE4C4EAFFEF6EE32B000E74
:10249000E423E12BE223010EDB06EBD7E55108E153
:1024A000400EDF5C03E1020EE06F02D0030EE06F2E
:1024B000DFCFE6FF980EE66E040EE66E010EE66EC6
:1024C000030EE66E9BEC0BF00B6E050EE15E0B50FF
:1024D000F3CFE9F4F4CFEAF4020EE15C02E2E16A40
:0C24E000E552E16EE552E7CFD9FF120093
:0424EC0012010002D7
:1024F00002000008D8040A000001010200010902DC
:102500004300020100C03209040000010202010080
:1025100005240010010424020205240600010524FC
:102520000100010705820308000209040100020AF4
:102530000000000705030240000007058302400079
:10254000000403090434034D006900630072006F46
:10255000006300680069007000200054006500639B
:102560000068006E006F006C006F0067007900204B
:102570000049006E0063002E003403430044004312
:10258000002000520053002D0032003300320020A2
:102590000045006D0075006C006100740069006FFB
:1025A000006E002000440065006D006F00FE2441B5
:0525B0002545257925F9
:0A25B6002A0EF66E080EF76E000EF6
:1025C000F86E00010900F550F06F0900F550F16F49
:1025D00003E1F06701D03DD00900F550EB6F090031
:1025E000F550EC6F0900F550ED6F09000900F5504A
:1025F000E96E0900F550EA6E090009000900F5507E
:10260000EE6F0900F550EF6F09000900F6CFF2F008
:10261000F7CFF3F0F8CFF4F0EBC0F6FFECC0F7FF24
:10262000EDC0F8FF0001EE5302E1EF5307E00900AF
:10263000F550EE6EEE07F8E2EF07F9D7F2C0F6FFBD
:10264000F3C0F7FFF4C0F8FF0001F007000EF15BE4
:04265000BFD71200DE
:0C265400FE0EE3CFE9FFFF0EE3CFEAFF2C
:10266000E9CFF3FFEACFF4FFFB0EE35003E1FC0EEA
:10267000E35009E0FB0EE30602E2FC0EE306FD0E6A
:08268000E350EE6EF1D71200E9
:082688001DEE00F02DEE00F044
:10269000F86A0A9CDBEC12F059EC13F06CEC0CF0CD
:0426A000FBD7120052
:0C26A40000EE00F00E0EEE6AEA62FDD7B8
:0226B000120016
:0226B200120014
:013FF800A622
:013FF900F7D0
:013FFA001DA9
:013FFB00FFC6
:013FFC006361
:013FFD00F8CB
:013FFE008141
:013FFF00F1D0
:00000001FF
